:100000000C942A000C9447000C9447000C94470071
:100010000C9447000C9447000C9447000C94470044
:100020000C9447000C9447000C9447000C949702E2
:100030000C9447000C9447000C9447000C94470024
:100040000C9447000C9447000C9447000C94470014
:100050000C94470011241FBECFE5D4E0DEBFCDBF16
:1000600010E0A0E6B0E0EAE1F6E002C005900D92F3
:10007000AA3CB107D9F721E0AAECB0E001C01D927B
:10008000A636B207E1F70E94E2020C940B030C942F
:1000900000008C9A94988AE08EBD089584E08CBB11
:1000A0001FBA1EBA0895E199FECF9FBB8EBBE09A9E
:1000B0008DB3089582E090E00E9453008093CF00BA
:1000C00083E090E00E9453008093CC0080E090E0B9
:1000D0000E9453008093CD0081E090E00E94530085
:1000E0008093CE00089590BD89B988E18AB986E0F1
:1000F00080BD08958AB11AB808955D9BFECF8CB972
:1001000008950F931F93CF93DF93C8E8D0E008E9D9
:1001100010E089910E947D000C171D07D1F7C0E700
:10012000D0E008E810E089910E947D000C171D07BF
:10013000D1F7C0E6D0E000E710E089910E947D0091
:100140000C171D07D1F7C8E9D0E009EC10E0899140
:100150000E947D000C171D07D1F7DF91CF911F91F1
:100160000F9108955F9BFECF8CB10895E0EDF0E014
:1001700088E491E01192E817F907E1F71092CB00BB
:100180001092CA0008950E94B6001092CA00579AB1
:1001900008950F931F93CF930E947A001092CA0084
:1001A0008091D100873481F48091D200803561F450
:1001B0008091D300823541F48091D4008D3421F4B4
:1001C0008091D500833409F0FFCFADE4B1E0E0EDDC
:1001D000F0E08781880F982F990F990F890F9085EC
:1001E000890F8C938185880F982F990F990F890F0C
:1001F0009285890F11968C9311978385880F982F7C
:10020000990F990F890F9485890F12968C931297E5
:10021000828916968C931697448928EE33E0429F84
:10022000C001439F900D11244589C4E6BC01C49FC1
:10023000600D711D11249689892F90E08C01000FAB
:10024000111FAC01440F551F440F551F440F551F7C
:10025000C801840F951F860F971F4789840F911D32
:1002600018969C938E931797418D429FC001439F90
:10027000900D1124428DBC01C49F600D711D11248D
:10028000938D892F90E08C01000F111FAC01440F5A
:10029000551F440F551F440F551FC801840F951F4C
:1002A000860F971F448D840F911D1A969C938E93F1
:1002B0001997868D1B968C931B9760A180E197E21E
:1002C000689FA001699F500D112461A1629FC00128
:1002D000639F900D1124480F591F82A1C89F400DA4
:1002E000511D112483A190E0BC01660F771F880F78
:1002F000991F880F991F880F991F860F971F480F06
:10030000591F84A1480F511D052E000C660B770B59
:100310001C964D935D936D937C931F9746A1429FCE
:10032000C001439F900D112427A1AC01C29F400D35
:10033000511D112490A5892F90E0BC01660F771FF5
:100340009C01220F331F220F331F220F331FCB01BB
:10035000820F931F840F951F21A5820F911D519627
:100360009C938E93509783A552968C93529785A514
:1003700053968C93539787A5880F982F990F990FB1
:10038000890F90A9890F54968C93549722A983A919
:1003900090E0AC01440F551F880F991F880F991FDB
:1003A000880F991F840F951FC29F800D911D1124E6
:1003B00024A9820F911D56969C938E93559786A9DA
:1003C000880F982F990F990F890F97A9890F579622
:1003D0008C93579781AD880F982F990F990F890F9C
:1003E00092AD890F13968C93139783AD880F982F36
:1003F000990F990F890F94AD890F14968C931497C8
:1004000085AD880F982F990F990F890F96AD890F99
:1004100015968C930E94C300CF911F910F91089560
:100420008BB31BBA08958FB9779BFECF0895FF92C7
:100430000F931F93CF93DF93D42F152F062FF72EF3
:10044000C22F0E9413028F2D0E941302802F0E9440
:100450001302812F0E9413028D2F0E9413028C2FF2
:100460000E941302DF91CF911F910F91FF90089589
:10047000CF938BB31BBA8AE090E02FEF2FB9779B15
:10048000FECF0197D9F780E40E94130280E00E941A
:10049000130280E00E94130280E00E94130280E0B9
:1004A0000E94130285E90E9413028FB1813031F05E
:1004B0008FEF0E9413028FB18130D1F727E84AEA0B
:1004C00051E060E070E088E40E9417028FB185304F
:1004D00019F0813059F406C08AE28093650123C087
:1004E000813021F486E2809365011DC080E00E9486
:1004F00013028FB18530A1F7EFCF8FEF0E94130267
:10050000C150D9F720E040E050E0BA0181E60E94F6
:1005100017028FB1882349F080E00E9413028FB147
:100520008111FACF02C0C5E0E8CFCF9108951F92A4
:100530000F920FB60F9211242F933F934F935F9317
:100540006F937F938F939F93AF93BF93CF93EF93CB
:10055000FF930E94B200C82F8091CB00893710F022
:100560000E94B600C43249F481E08093CA0094E24C
:100570009093D0008093CB0013C0CA3219F40E942C
:10058000C9000EC08091CA00882351F08091CB0031
:10059000E82FF0E0E053FF4FC0838F5F8093CB00E4
:1005A000FF91EF91CF91BF91AF919F918F917F91EB
:1005B0006F915F914F913F912F910F900FBE0F90D0
:1005C0001F9018958FEF8ABB1BBA8DEC87BB82E317
:1005D00088BB14BA15BA8FE481BB80E882BB0E9445
:1005E0004E000E945A000E9410020E94380210928F
:1005F000CB001092CA0080E895E20E9473000E942E
:1006000081000E947A000E94490082E08A95F1F7F9
:0A06100000C0C098FACFF894FFCFA5
:10061A0024504D544B3232302C313030302A31464E
:10062A0024504D544B3330302C313030302C302C58
:10063A00302C302C302A314324504D544B32353132
:10064A002C393630302A313724504D544B3331341B
:10065A002C302C312C302C302C302C302C302C30AF
:10066A002C302C302C302C302C302C302C302C30A0
:0A067A002C302C302C302A323900CD
:00000001FF
