:100000000C9411070C9487190C94B3190C94DD19F6
:100010000C942E070C942E070C942E070C942E078C
:100020000C942E070C942E070C944D1A0C942E074A
:100030000C942E070C942E070C942E070C942E076C
:100040000C94091A0C942E070C942E070C942E076E
:100050000C949C1A0C942E070C942E070C942E07CB
:100060000C942E070C942E070C942E070C942E073C
:100070000C942E070C942E070C942E071D0F130FB3
:100080006C0F080F9D0FFD0ED10FF20EE70EDC0E68
:10009000084AD73B3BCE016E84BCBFFDC12F3D6CEF
:1000A00074319ABD56833DDA3D00C77F11BED9E455
:1000B000BB4C3E916BAAAABE000000803F0020040A
:1000C00040024812899193C997E997E993C98991A8
:1000D0004812400220040FFF180130016551C5513C
:1000E000855185518001E00120012001200120017E
:1000F0002001E001800180018001800180018001F8
:10010000FFFF00000000003E5B4F5B3E3E6B4F6B0D
:100110003E1C3E7C3E1C183C7E3C181C577D571CE8
:100120001C5E7F5E1C00183C1800FFE7C3E7FF0061
:1001300018241800FFE7DBE7FF30483A060E2629AF
:10014000792926407F050507407F05253F5A3CE772
:100150003C5A7F3E1C1C08081C1C3E7F14227F2238
:10016000145F5F005F5F06097F017F006689956A03
:10017000606060606094A2FFA29408047E0408108E
:10018000207E201008082A1C08081C2A08081E10B7
:100190001010100C1E0C1E0C30383E3830060E3E6F
:1001A0000E06000000000000005F000000070007CE
:1001B00000147F147F14242A7F2A122313086462F8
:1001C00036495620500008070300001C2241000059
:1001D00041221C002A1C7F1C2A08083E08080080B7
:1001E000703000080808080800006060002010084F
:1001F00004023E5149453E00427F40007249494950
:10020000462141494D331814127F10274545453981
:100210003C4A494931412111090736494949364685
:100220004949291E00001400000040340000000865
:100230001422411414141414004122140802015908
:1002400009063E415D594E7C1211127C7F49494995
:10025000363E414141227F4141413E7F494949412A
:100260007F090909013E414151737F0808087F0059
:10027000417F41002040413F017F081422417F40DF
:100280004040407F021C027F7F0408107F3E4141B6
:10029000413E7F090909063E4151215E7F09192926
:1002A00046264949493203017F01033F4040403F10
:1002B0001F2040201F3F4038403F63140814630351
:1002C000047804036159494D43007F4141410204D0
:1002D000081020004141417F0402010204404040D7
:1002E0004040000307080020545478407F284444CD
:1002F000383844444428384444287F3854545418E7
:1003000000087E090218A4A49C787F0804047800E1
:10031000447D40002040403D007F102844000041C3
:100320007F40007C047804787C08040478384444D6
:100330004438FC1824241818242418FC7C080404CD
:1003400008485454542404043F44243C4040207C36
:100350001C2040201C3C4030403C44281028444C89
:100360009090907C4464544C440008364100000056
:10037000770000004136080002010204023C2623F7
:10038000263C1EA1A161123A4040207A38545455AF
:100390005921555579412254547842215554784079
:1003A00020545579400C1E52721239555555593901
:1003B0005454545939555454580000457C41000256
:1003C000457D420001457C407D1211127DF02825BB
:1003D00028F07C545545002054547C547C0A097FF5
:1003E0004932494949323A4444443A324A48483009
:1003F0003A4141217A3A42402078009DA0A07D3DBB
:100400004242423D3D4040403D3C24FF2424487E42
:100410004943662B2FFC2F2BFF0929F620C0887E2D
:10042000090320545479410000447D413048484A32
:1004300032384040227A007A0A0A727D0D19317DE5
:100440002629292F28262929292630484D402038B9
:100450000808080808080808382F10C8ACBA2F1078
:100460002834FA00007B000008142A142222142ADF
:100470001408AA005500AAAA55AA55AA000000FF10
:1004800000101010FF00141414FF001010FF00FFE4
:100490001010F010F0141414FC001414F700FF00F6
:1004A00000FF00FF1414F404FC141417101F1010A4
:1004B0001F101F1414141F00101010F00000000073
:1004C0001F101010101F10101010F010000000FF6F
:1004D000101010101010101010FF10000000FF146A
:1004E0000000FF00FF00001F10170000FC04F414C0
:1004F000141710171414F404F40000FF00F7141478
:100500001414141414F700F7141414171410101FF3
:10051000101F141414F4141010F010F000001F1029
:100520001F0000001F14000000FC140000F010F079
:100530001010FF10FF141414FF141010101F0000EF
:100540000000F010FFFFFFFFFFF0F0F0F0F0FFFF02
:10055000FF0000000000FFFF0F0F0F0F0F38444493
:100560003844FC4A4A4A347E02020606027E027E73
:100570000263554941633844443C04407E201E20B8
:1005800006027E020299A5E7A5991C2A492A1C4C5D
:100590007201724C304A4D4D303048784830BC6260
:1005A0005A463D3E494949007E0101017E2A2A2AD8
:1005B0002A2A44445F444440514A444040444A51FA
:1005C000400000FF0103E080FF000008086B6B089B
:1005D0003612362436060F090F06000018180000E0
:1005E000001010003040FF0101001F01011E001922
:1005F0001D1712003C3C3C3C00000000000D000EAA
:10060000000F0010002B002C002D142E142F14307E
:100610001431003200330049004A004B144C144D91
:10062000144E144F14501451145200680069146A87
:10063000146B146C146D146E146F147014710072BA
:1006400000730074008700881489148A148B148C3A
:10065000148D008E008F00901491149214931494B2
:1006600014950096009700A600A714A814A914AA30
:1006700014AB14AC00AE00AF14B014B114B214B388
:1006800014B414B514B614B714B800C600C714C80F
:1006900014C914CA00CB00CD00CE14CF14D014D18D
:1006A00000D200D300D414D514D614D714D814D93A
:1006B00000E500E614E714E814E900EC00ED00EEB4
:1006C00000EF00F000F400F500F614F714F814F948
:1006D000000501061507150815090116011715185B
:1006E000151901250126152715280136013715385A
:1006F0000144014515461547154801570164016538
:10070000156615671568018501861587018F0190AB
:10071000019101920193019401950196019701982D
:100720000199019A019B019C01A101A201A501A6C9
:1007300015A701AC01AD01AF01B00DB10DB20DB304
:100740000DB40DB50DB60DB70DB80DB90DBA0DBB85
:1007500001BC11BD01C001C105C205C301C501C66F
:1007600015C701CB01CC05CD05CE01CF01D00DD1F0
:100770000DD20DD30DD40DD50DD60DD70DD80DD965
:100780000DDA0DDB01DC11DD01E001E105E205E33D
:1007900001E601EB01EC05ED05EE01EF09F001F1D9
:1007A0000DF20DF30DF40DF50DF60DF70DF80DF935
:1007B0000DFA0DFB01FC11FD01000201020206030E
:1007C0000604020A020B060C060D020E020F0A10A6
:1007D00002110212021302140E150E160E17021841
:1007E0000219021A021B021C121D022102220623F8
:1007F0000624022A022B062C062D022E0A2F023076
:10080000023302340E350E360E3702381239123AE0
:10081000123B123C123D024102420243064406458D
:100820000249024A064B064C024D024E0A4F025341
:1008300002540E550E560E5702581259025A025BB8
:10084000025C02620263066406650269026A066B64
:10085000066C026D0A6E026F027302740E750E76DC
:100860000E77027812790282028302840685068658
:1008700002880289068A068B028C028D0A8E0293F8
:1008800002940E950E960E970298129902A302A456
:1008900006A506A602A802A906AA06AB02AC0AADE6
:1008A00002AE02B302B40EB50EB60EB702B812B95C
:1008B00002C302C402C506C606C702C806C906CAE4
:1008C00002CB02CC0ACD02D302D40ED50ED60ED75F
:1008D00002D812D902E402E506E606E706E806E9D0
:1008E00006EA02EB0AEC02ED02EF02F002F102F27C
:1008F00002F302F40EF50EF60EF702F802F902FA10
:1009000002FB02FC020403050306070707080709A8
:10091000030A030B0B0C030F03100F110F120F131D
:100920000F140F150F160F170F180F190F1A0F1B93
:10093000031C131D03250326072707280729032A5D
:100940000B2B032C032F03300F310F320F330F34D7
:100950000F350F360F370F380F390F3A0F3B033C67
:10096000133D03450346034707480349034A0B4B1E
:10097000034F03500F510F520F530F540F550F5683
:100980000F570F580F590F5A0F5B035C135D036627
:100990000367076803690B6A036B036F03700371D6
:1009A0000372037303740375037603770378037983
:1009B000037A037B037C137D038603870388038903
:1009C0000B8A038F0390139113921393139413952F
:1009D0001396139713981399139A139B139C039DC3
:1009E00003A703A803A903B003B103B203B303B47D
:1009F00003B503B603B703B803B903BA03BB03BC1B
:100A000003000000F800601F006A00E0FF00000023
:100A10000000000000000000000000000000008056
:100A2000000000F0000000FC0000807F0000E07F7C
:100A30000000F87F0000FF3F00C0FF3F00F0FF3FD5
:100A400000FEFF1F00FFFF1F00FEFF1F00F0FF3F23
:100A500000C0FF3F0000FF3F0000F87F0000E07F84
:100A60000000807F000000FC000000F0000000801B
:100A70000000000000000000000000000000000076
:100A80000000000000000000000000000000000066
:100A90000000000000000000010000F8010040FF1D
:100AA0000100F8FF00C0FF7F00F6FF7F00FFFF3F5F
:100AB00000FEFF3F00FCFF3F00F8FF1F00E0FF0FBC
:100AC0000080FF0F0000FF1F0000FC1F0000F81F48
:100AD0000000E01F0000E01F0000001F0000003CBD
:100AE00000000038000000200000000000000000AE
:100AF00000000000000000000000000000000000F6
:100B000000000000000000000000000000000000E5
:100B1000000000D202ACFFFF03FFFFFF03FEFFFF58
:100B200000F8FFFF00F8FFBF00E0FF3F00E0FF3FDD
:100B30000040FF0F0000FF0F0000FE0F0000F80F45
:100B40000000F80F0000F00F0000E00F0000800F21
:100B50000000800F0000000F0000000C00000000EB
:100B60000000000000000000000000000000000085
:100B70000000000000000000000000000000000075
:100B80000008000000DC070000FC7F0D00F8FFFFFC
:100B900005F0FFFF07E0FFFF03E0FFFF00C0FFFFDE
:100BA00000C0FF3F0000FF3F0000FF0F0000FE07F6
:100BB0000000FC070000F8070000F8070000F0073D
:100BC0000000E0070000C0030000C0030000800335
:100BD0000000000300000001000000000000000011
:100BE00000000000000000000000000000100000F5
:100BF0000038000000F8030000F01F0000E0FF02D2
:100C000000E0FF1B00C0FF5F01C0FFFF0380FFFF8C
:100C10000F80FFFF0700FFFF0000FFBF0000FE3F47
:100C20000000FE0F0000FC030000FC030000FC03BA
:100C30000000F8010000F8010000F0010000F000E1
:100C40000000E0000000C0000000400000000000C4
:100C50000000000000000000000000000060000034
:100C600000F0000000E00B0000C02F0000C03F00BB
:100C700000C0FF0000C0FF030080FF1F0080FF7F57
:100C80000080FFFF0100FFFF0300FFFF0F00FFFFD9
:100C90000700FFFF0000FF1F0000FE030000FE032F
:100CA0000000FC010000FC010000FC000000FC0052
:100CB00000003C0000003800000030000000100080
:100CC00000000000000000000040000000C0010023
:100CD00000C003000080070000801F0000807F002C
:100CE00000807F000080FF010080FF030080FF0F75
:100CF0000000FF1F0000FF3F0000FF7F0000FFFF1C
:100D00000100FFFF0300FFFF0B00FFFF0700FF577D
:100D10000000FE030000FE000000FE0000003E0098
:100D200000003E0000000E0000000E000000060063
:100D300000000000000000000000020000000600AB
:100D40000000070000001E0000001E0000007F00E1
:100D50000000FF000000FF010000FF010000FF0392
:100D60000000FF070000FF0F0000FF1F0000FF3F13
:100D70000000FF3F0000FFFF0000FFFF0180FFFFBA
:100D80000100FFFF0300FFFD03807F0000807F0064
:100D900000801F0000801F0000800300008003000F
:100DA000000000000000000000000000000008003B
:100DB00000001C0000003C0000007C0000007C00E3
:100DC0000000FC000000FE000000FE010000FE0329
:100DD0000000FE030000FE070000FF0F0000FF0FF1
:100DE0000000FF3F0080FF3F0080FF3F0080FF7F4B
:100DF0000080FF7F0080FFFF00C0FFFF01C07FFE7B
:100E000001C03F8003C0070000C0010000E00000F7
:100E100000000000000000000000000000000000D2
:100E2000000011241FBECFEFD8E0DEBFCDBF13E01E
:100E3000A0E0B1E0EEE1FCE302C005900D92A8381D
:100E4000B107D9F724E0A8E8B3E001C01D92A93B9F
:100E5000B207E1F70E9482190C940D1E0C94000059
:100E60008EE594E00E94AB1D865A9F4F68E671E0C4
:100E70000E947D1D0895CF92DF92EF92FF92CF9353
:100E8000DF93C5E9D3E06E817F818A859B85681BEE
:100E9000790B072E000C880B990B0E942D1C6B01FF
:100EA0007C016C817D8188859985681B790B072E73
:100EB000000C880B990B0E942D1C9B01AC01C701F3
:100EC000B6010E94831B0E944F1B20E030E044E3E8
:100ED00053E40E940C1D2BED3FE049E450E40E94D6
:100EE000831B6B017C0120E030E0A9010E947E1B86
:100EF000882354F420E030E044EB53E4C701B6010A
:100F00000E94E31A6B017C01C701B6010E94F51B28
:100F1000CB01DF91CF91FF90EF90DF90CF900895BC
:100F20000F931F9300E010E02FEF3FEF42E06AE3E2
:100F300070E08AE990E00E94641068E087E194E044
:100F40000E94CB158AE00E94FD1489E294E00E9481
:100F500038158AE00E94FD14809162040E94FD14FD
:100F60008AE00E94FD1482E394E00E9438158AE032
:100F70000E94FD1486E494E00E9438158AE00E94E5
:100F8000FD148CE594E00E9438158AE00E94FD145F
:100F90008EE594E00E9438158AE00E94FD141F91AE
:100FA0000F910895EF92FF920F931F93CF93DF93CA
:100FB000C82FE5E9F3E0E080F18084819581E81AAB
:100FC000F90A62817381868197818B01081B190B55
:100FD00061E080E00E94411460E08C2F90E00E946C
:100FE000EC1762E08091AB039091AC030E94EC1788
:100FF000C53009F469C018F4C43041F098C1C63056
:1010000009F4FAC0C73009F486C191C166E0C7018E
:101010000E94EC1761E1C8010E94EC17B801665A02
:101020007F4F2FEF3FEF42E08AE590E08E199F0956
:101030000E94E11000E010E02FEF3FEF41E06EED85
:1010400070E085E090E00E9464108BE091E00E94E7
:101050003815809146048D3219F086E494E002C080
:1010600087E494E00E943815809164040E94FD1486
:101070008EE091E00E943815809132048D3219F093
:1010800082E394E002C083E394E00E9438158091EB
:1010900063040E94FD140E94300700E010E02FEF6F
:1010A0003FEFAC0169EB70E08DE290E00E946011CF
:1010B0000E943B0720EE37E0AC0169EB70E087E867
:1010C00090E00E94601133C166E0C7010E94EC17F6
:1010D00061E1C8010E94EC17B801665A7F4F20EE0B
:1010E00037E044E08AE590E08E199F090E94E11004
:1010F00000E010E02FEF3FEF41E06EED70E085E0A3
:1011000090E00E9464108BE091E00E94381580917D
:1011100046048D3219F086E494E002C087E494E03E
:101120000E943815809164040E94FD148EE091E0C5
:101130000E943815809132048D3219F082E394E0D8
:1011400002C083E394E00E943815809163040E94FA
:10115000FD140E94300700E010E02FEF3FEFAC01DC
:1011600069EB70E08DE290E00E94601120EE37E0C4
:1011700041E06EED70E08FE590E00E9464108BE03E
:1011800091E00E943815809146048D3219F086E472
:1011900094E002C087E494E00E94381580916404D2
:1011A0000E94FD148EE091E00E9438158091320477
:1011B0008D3219F082E394E002C083E394E00E9450
:1011C0003815809163040E94FD14E5E9F3E0848101
:1011D000958191878087868197819387828700E0B8
:1011E00010E02DE130E04DE150E069EB70E087E880
:1011F00090E00E9466129BC0C5E9D3E066E08C8156
:101200009D810E94EC1761E18E819F810E94EC1705
:1012100020E038EF44E06AE570E08AE590E00E9463
:10122000E11000E010E020EE37E041E06EED70E00C
:1012300085E090E00E9464108BE091E00E943815F8
:10124000809146048D3219F086E494E002C087E470
:1012500094E00E943815809164040E94FD148EE091
:1012600091E00E943815809132048D3219F082E3AA
:1012700094E002C083E394E00E94381580916304F7
:101280000E94FD140E94300700E010E020E038EFDB
:10129000AC0169EB70E08DE290E00E94601120EEFD
:1012A00037E041E06EED70E08FE590E00E94641061
:1012B0008BE091E00E943815809146048D3219F040
:1012C00086E494E002C087E494E00E94381580919F
:1012D00064040E94FD148EE091E00E943815809114
:1012E00032048D3219F082E394E002C083E394E08B
:1012F0000E943815809163040E94FD1400E010E004
:101300002DE130E04DE150E069EB70E087E890E0DE
:101310000E9466120CC0C5E9D3E066E08C819D8115
:101320000E94EC1761E18E819F810E94EC176BE1B6
:1013300087E194E00E94D11764E289E294E00E9480
:10134000D117C5E9D3E06DE28C859D850E94EC172D
:1013500061E38E859F850E94EC17E9EAF3E06481E2
:101360007581868197818B019C010F5F1F4F2F4FE5
:101370003F4F04831583268337830E94F318C82FB9
:10138000811105C060E080E00E94411401C0C1E00D
:101390008C2FDF91CF911F910F91FF90EF900895C7
:1013A0002F923F924F925F926F927F928F929F9275
:1013B000AF92BF92CF92DF92EF92FF920F931F9363
:1013C000CF93DF93CDB7DEB727970FB6F894DEBF84
:1013D0000FBECDBFE5E9F3E04484558420E1420E21
:1013E000511C052C000C6608770880899189A28918
:1013F000B389480E591E6A1E7B1E868597854096C6
:10140000880F991F82959295907F9827807F9827C3
:10141000092E000CAA0BBB0BA3019201280F391F48
:101420004A1F5B1F29833A834B835C83CA01B9013E
:101430000E945F198D838111F9C000E010E022EB5A
:1014400030E042EB50E061E070E081E090E00E942B
:1014500066128091B804811130C060E083E090E0B2
:101460000E94EC1762E08091AB039091AC030E9464
:10147000EC1766E08091AD039091AE030E94EC17EB
:1014800069817A818B819C810E94F3188D838111FF
:10149000D0C08091A1039091A203892B41F4809147
:1014A000A3039091A403892B21F486E003C087E075
:1014B00001C087E00E94D207BEC080E794E00E948E
:1014C000AB1D4C01990FAA08BB080F2EF6E04F2E5A
:1014D000512CF02D0F2EFAE5CF2ED12CF02D0F2E02
:1014E000F8EB2F2EF4E03F2EF02D0F2EF5E9EF2E26
:1014F000F3E0FF2EF02D6C2C7D2C02C04E805F801F
:10150000C501B4010E945F191F821E828AE694E021
:101510000E94AB1D85309105D9F08630910571F19F
:101520000497A9F58BE794E00E94AB1D8C0180E73E
:1015300094E00E94AB1DB801665A7F4F2FEF3FEF3A
:1015400042E0F601E81BF90BCF010E94E1101FC039
:101550008BE794E00E94AB1D8C0180E794E00E9431
:10156000AB1DB801665A7F4F20EE37E044E0F6012C
:10157000E81BF90BCF010E94E11009C020E038EF11
:1015800044E0662D772D862D972D0E94E1102E8147
:101590003F812F5F3F4F3F832E83C501B401620F10
:1015A000731F811D911D0E945F1987E994E00E94BD
:1015B000AB1D8C018BE994E00E94AB1DF1012081F1
:1015C000222361F0F701248535850217130731F4D2
:1015D000268537858217930709F498CF9201275FF4
:1015E0003F4F3F832E8369817A818B819C810E944A
:1015F0005F19C2018D589B4F0E94AB1D4C01990F82
:10160000AA08BB0881149104A104B10409F076CFA3
:101610006E818091AD039091AE030E94EC176981B9
:101620007A818B819C810E94F31805C031E03D8353
:1016300002C041E04D838D8127960FB6F894DEBF3E
:101640000FBECDBFDF91CF911F910F91FF90EF9013
:10165000DF90CF90BF90AF909F908F907F906F90D2
:101660005F904F903F902F900895EF92FF920F93CD
:101670001F93CF93DF93E7E1F4E020E234E0819120
:101680008087E217F307D9F700E010E02FEF3FEF74
:1016900042E069EB70E089EB90E00E94641068E042
:1016A00087E194E00E94E415E0E0F1E081E08683C8
:1016B00080EE9BE79087878389E294E00E9438154B
:1016C00082E394E00E94AB1DEC018CE394E00E9465
:1016D000AB1DC81BD90B86E494E00E94AB1D8C01A6
:1016E00081E594E00E94AB1D9801281B390BC901CC
:1016F0009E01DD2324F4222733272C1B3D0B2830A9
:1017000031055CF49C01992324F422273327281BFC
:10171000390B283031050CF48EC005E913E0F801CF
:10172000E480F580E80EF91EF582E48266E474E058
:1017300081E594E00E94C91DF80186819781C80F58
:10174000D91FD783C68362E374E08CE394E00E94E0
:10175000C91DF801808191819701281B390B2B3518
:1017600031056CF0248535852F5F3F4F3587248701
:101770008C549F4F918380830E94D00942C09C016A
:101780002E193F092B3531057CF0E5E9F3E024857E
:1017900035852150310935872487845B91099183F0
:1017A00080830E94D0092DC0809197039091980367
:1017B0009E01281B390B2B3531057CF0E5E9F3E060
:1017C000268537852F5F3F4F378726878C549F4F5D
:1017D000938382830E94D00914C09C012C1B3D0B73
:1017E0002B35310574F0E5E9F3E026853785215086
:1017F000310937872687845B9109938382830E940E
:10180000D009809188038F5F809388038A3081F4A8
:10181000E5E9F3E0848195819187808786819781CE
:101820009387828785E00E94D2071092880303C0C5
:1018300084E00E94D207DF91CF911F910F91FF901A
:10184000EF900895EF92FF921F93CF93DF93182F9D
:10185000813061F5E9EAF3E084819581A681B78161
:10186000C5E9D3E0888B998BAA8BBB8B9C5FAF4F6C
:10187000BF4F84839583A683B7831D861C861F86EE
:101880001E8686E494E00E94AB1D7C019D838C83C0
:1018900082E394E00E94AB1D9F838E83F986E886E5
:1018A0009B878A87F982E8829B838A8361E080E054
:1018B0000E94411460E0812F90E00E94EC17C9EA79
:1018C000D3E062E08C819D810E94EC176A817B816C
:1018D0006F5F7F4F7B836A8380E090E00E94F31804
:1018E000C82F811105C060E080E00E94411401C052
:1018F000C1E08C2FDF91CF911F91FF90EF90089561
:1019000080911E048F5F8A3318F480931E0408951B
:10191000E7E1F4E080E3878386818F5F863318F404
:1019200080931D040895E7E1F4E080E386838481D9
:101930008F5F8A3318F480931B040895E7E1F4E085
:1019400080E3848383818F5F863318F480931A0445
:101950000895E7E1F4E080E3838381818F5F84333E
:1019600018F4809318040895E7E1F4E080E381839C
:1019700080818F5F833318F480931704089580E388
:101980008093170408958091650481112CC060E054
:1019900081E00E9441148091AA03813029F08330B4
:1019A00059F40E94900708C080916204843411F0B9
:1019B0008134A1F40E94350B8091A903882319F08A
:1019C0000E94800C089580916204813421F461E0CA
:1019D00081E00E9441140E94770E08958091A9032E
:1019E0008823C9F3EDCF0895882319F0813039F0A9
:1019F0000895EEE6F0E080818D7F8083089516BC27
:101A0000A99AEEE6F0E0808182608083089580E00C
:101A10000E94F40C80E00E94890D80E00E94EA158B
:101A20001092AA0381E00E94F40C81E00E94890DCB
:101A3000089580E00E94F40C80E00E94890D81E00E
:101A40000E94EA1583E08093AA0381E00E94F40CCF
:101A500081E00E94890D08950F931F93CF93DF9328
:101A600080E00E94F40C80E00E94890D8091A9031F
:101A7000811102C00E94770E82E00E94EA1581E087
:101A80000E94220C81E00E94890D8091A90381119E
:101A90002BC005E614E0C2E6D4E0F8018081811194
:101AA000FECF8881813429F00E94770E88818134AD
:101AB000A1F7E2E3F4E02CE334E081918187E217BF
:101AC000F307D9F7E6E4F4E021E534E08191828779
:101AD0002E173F07D9F7E7E1F4E020E234E08191E7
:101AE0008087E217F307D9F70E94D0090E94350BCF
:101AF00081E08093AA030E94F40CDF91CF911F91A3
:101B00000F91089568EC70E084E690E00E94400E2A
:101B100008959FEF9CBB882319F0813029F0089528
:101B20008DB3887F8DBB08958DB387608DBB08957D
:101B30008FEF8CBB7894809166048130B9F018F0F7
:101B4000823039F10895E0918903F0918A03EE0F14
:101B5000FF1FE295F295F07FFE27E07FFE27E55715
:101B6000FD4F0190F081E02D09950895E0918903E2
:101B7000F0918A03EE0FFF1FE295F295F07FFE27AA
:101B8000E07FFE27E55BFD4F0190F081E02D099598
:101B90000895E0918903F0918A03EE0FFF1FE2950B
:101BA000F295F07FFE27E07FFE27E553FE4F019080
:101BB000F081E02D09950895BC019FEF9CBB9091A9
:101BC0006604913021F048F0923021F0089542E00F
:101BD00050E005C044E050E002C043E050E02091F6
:101BE000890330918A03CB01820F931F84179507D5
:101BF0002CF010928A03109289030DC099232CF0C7
:101C000090938A038093890306C0415051095093F1
:101C10008A0340938903809189030E945515089592
:101C2000BC0180E090E00E942B1C9B01AC0160E0B5
:101C300074E284E79AE40E94831B20E030E040E8ED
:101C40005FE30E94E21A0E94FC1B7093890060937C
:101C50008800E0E8F0E08081806180830895E0E81A
:101C6000F0E080818F7E80830895009741F0EFEC53
:101C7000F7E03197F1F700C000000197C1F7089530
:101C8000CF93DF93EB010E94100ECE010E94350E20
:101C90000E942F0EDF91CF910895CF93DF932FEF06
:101CA00080E792E0215080409040E1F700C00000C2
:101CB000549B0DC0C0E9D1E068E270E0CE010E9403
:101CC000400EA897C83CD105B9F754980DC0549A56
:101CD000C8ECD0E068E270E0CE010E94400EA89609
:101CE000C03921E0D207B1F7DF91CF91089510926A
:101CF0008B0310928C0381E080936504E1ECF0E0AB
:101D00008081806880830895E1ECF0E080818F77A6
:101D1000808308952F923F924F925F926F927F92AD
:101D20008F929F92AF92BF92CF92DF92EF92FF92EB
:101D30000F931F93CF93DF930E94840E10928B0317
:101D40007894552453940F2EF4E68F2EF4E09F2EB2
:101D5000F02D0F2EF6E4EF2EF4E0FF2EF02D07E12C
:101D600014E00F2EF3E6AF2EF4E0BF2EF02D0F2E71
:101D7000F2E3CF2EF4E0DF2EF02D0F2EF2E66F2EE1
:101D8000F4E07F2EF02D44244394C1EBD3E00F2EDA
:101D9000F8E12F2EF4E03F2EF02D01C05394EFEF29
:101DA000E50D8E2F90E08A30910508F067C1FC01A7
:101DB000E25CFF4F0C94911D90918C03E92FF0E0B1
:101DC000EF54FC4F20812C3209F040C15BC180915F
:101DD0008C03E82FF0E0EF54FC4F30813C3209F0E7
:101DE00017C130C180918C03E82FF0E0EF54FC4F15
:101DF00030813C3209F0EEC007C180918C03E82F9E
:101E0000F0E0EF54FC4F20812C3209F0AFC0C5C088
:101E100080918C03E82FF0E0EF54FC4F20812C32AE
:101E200009F070C086C080918C03E82FF0E0EF5479
:101E3000FC4F20812C32D1F433C040928C03898135
:101E4000873481F48A81803569F48B81823551F43D
:101E50008C818D3439F48D81833421F487E0809333
:101E60008C039CCF1092650481E013C18F5F90E0DA
:101E700001C0832F993058F4923011F0953009F455
:101E80009F5FE92FF0E0E95EFB4F20839F5FE82F23
:101E9000F0E0EF54FC4F208131E0380F2C3249F74D
:101EA0008F5F80938C03C8010E94AB1D9BEF980F3E
:101EB00012F493E1980F9A301CF0602F712F02C03A
:101EC000622D732D4AE0892F990F990B0E94D01D26
:101ED0008AE3F801828362CF80918C03E82FF0E0DF
:101EE000EF54FC4F9081913431F4F30190838E5F75
:101EF00080938C0353CF1092650486E5809362042F
:101F000081E0C7C090E02E3209F48F5FE92FF0E046
:101F1000E95EFB4FA82FB0E0AF54BC4F2C91238F4C
:101F20008F5F9F5FE82FF0E0EF54FC4F20812C3251
:101F300051F78F5F80938C0331CF80918C03E82F12
:101F4000F0E0EF54FC4F9081F5019083933551F40C
:101F5000EAE3F4E092919183CE16DF06D9F79DE291
:101F6000F801938F8E5F80938C0318CF90E02E3210
:101F700009F48F5FE92FF0E0E95EFB4FA82FB0E096
:101F8000AF54BC4F2C9127A78F5F9F5FE82FF0E0E5
:101F9000EF54FC4F20812C3251F78F5F80938C03DC
:101FA000FDCE90918C03E92FF0E0EF54FC4F80813F
:101FB000F4018083873551F4EFE4F4E0829181836A
:101FC000EE16FF06D9F78DE2F80187A79E5F909382
:101FD0008C03E4CE8F5F20E090E001C0842F3E327E
:101FE00049F0211108C0E92FF0E0E45AFB4F30839B
:101FF0009F5F01C0242DE82FF0E0EF54FC4F3081AB
:1020000041E0480F3C3251F78F5F80938C03C6CE7E
:102010008F5F20E090E001C0842F3E3249F0211113
:1020200008C0E92FF0E0E25AFB4F30839F5F01C008
:10203000242DE82FF0E0EF54FC4F308141E0480FB1
:102040003C3251F78F5F80938C03A8CE9F5F80E076
:10205000893058F4823011F0853009F48F5FE82F11
:10206000F0E0E95EFB4F228B8F5FE92FF0E0EF5449
:10207000FC4F20819F5F2C3259F704C099E09515E1
:1020800008F08CCE1092650410928B0310928C0392
:1020900080E0DF91CF911F910F91FF90EF90DF9043
:1020A000CF90BF90AF909F908F907F906F905F90F8
:1020B0004F903F902F900895E0ECF0E080818823CE
:1020C000ECF78091C60008950F931F93E0E0F1E0D4
:1020D0009183808393838283758364838FEF840FDE
:1020E000883008F041E0E0E0F1E046833087278364
:1020F000128701871F910F9108958EBD0DB407FEC1
:10210000FDCF089595B1977E95B90E947D102C9AC8
:102110002B9A08952B9A2C980E947D102C9A089542
:10212000CF93C82F892F0E948A108C2F0E948A106B
:10213000CF910895CF92DF92EF92FF920F931F936A
:10214000CF93DF93D82EC92E162F072FF42EE52E0E
:10215000C22FD32F8AE20E9482108C2D0E948A10F7
:102160008D2D0E948A108E2D0E948A108F2D0E9424
:102170008A108BE20E948210802F0E948A10812F89
:102180000E948A108D2F0E948A108C2F0E948A1024
:102190008CE20E948210DF91CF911F910F91FF90EE
:1021A000EF90DF90CF900895CF93DF93EA019B01EA
:1021B000AC010E949A10CE010E949010DF91CF9145
:1021C00008952F923F924F925F926F927F928F92DB
:1021D0009F92AF92BF92CF92DF92EF92FF920F93B6
:1021E0001F93CF93DF9300D000D0CDB7DEB74C0163
:1021F0002B011901413021F4A9010E94D41049C0DA
:10220000042F10E0009F6001019FD00CD00C11241E
:1022100022273327201B310B3A8329830217130708
:1022200024F537C02B813C81229FC001239F900D54
:10223000900D11248E0D9F1DC816D90638F0A101EE
:10224000B301C901880D991D0E94D4108B819C8116
:1022500001969C838B830817190724F79FEFA91A0F
:10226000B90A0A151B053CF414C0A980BA80842F52
:1022700090E0C80ED91EAA9C7001AB9CF00CF00C2B
:10228000112429813A813C832B833501640C751C10
:10229000C9CF0F900F900F900F90DF91CF911F91AA
:1022A0000F91FF90EF90DF90CF90BF90AF909F90F5
:1022B0008F907F906F905F904F903F902F900895F8
:1022C0002F923F924F925F926F927F928F929F9246
:1022D000AF92BF92CF92DF92EF92FF920F931F9334
:1022E000CF93DF93CDB7DEB760970FB6F894DEBF1C
:1022F0000FBECDBF6C017E876D873A0149E664163B
:1023000041E074060CF0C9C077202CF458E9651A36
:102310005EEF750ADAF3C3016AE570E00E947D1D85
:102320006AE070E00E947D1D44E7469FC001479F20
:10233000900D1124AC01435F554F5A87498740598E
:102340005F4F5C874B875E834D8389859A859A832F
:1023500089831C821B820F2EFCE14F2E512CF02D05
:10236000222E332EA02EB12E80C09AE5691671045C
:1023700094F4E981FA8185919591A591B4919201A6
:102380002819390904C0B695A795979587952A9578
:10239000D2F7817037C024EB6216710484F4EF85A4
:1023A000F88985919591A591B4910B8004C0B6955B
:1023B000A795979587950A94D2F7817023C03EE040
:1023C000631631E0730684F4ED81FE818591959169
:1023D000A591B491082C04C0B695A79597958795BB
:1023E0000A94D2F781700EC0F80185919591A5915C
:1023F000B4910F8004C0B695A795979587950A94D8
:10240000D2F78170811103C04B2D5A2D02C0422D8D
:10241000532DB701C4018C0D9D1D0E94D4104FEFA8
:10242000841A940A8F8598890496988B8F87045014
:1024300011099DE18916910409F097CF8A2DAB2CE3
:10244000B82E2B813C812F5F3F4F3C832B834981EA
:102450005A814C5F5F4F5A8349838D819E810497D7
:102460009E838D832D313105C1F00B851C85298517
:102470003A85388B2F87812C912CA2018B819C81EE
:10248000481B590B58874F837C012D853E85E20EF2
:10249000F31E8B2DBA2CA82E68CF60960FB6F89439
:1024A000DEBF0FBECDBFDF91CF911F910F91FF9087
:1024B000EF90DF90CF90BF90AF909F908F907F90E4
:1024C0006F905F904F903F902F900895AF92BF9282
:1024D000CF92DF92EF92FF920F931F93CF93DF93F0
:1024E0007A01590121503109260F371F41505109F6
:1024F000480F591F0E949A10A114B10489F416C004
:10250000C0E0D0E0C8010E9490102196EC16FD06B4
:10251000C9F78FEFC81AD80AAC14BD0419F406C065
:10252000C12CD12CE114F10459F7F3CFDF91CF91F5
:102530001F910F91FF90EF90DF90CF90BF90AF90E1
:1025400008958F929F92AF92BF92CF92DF92EF92B7
:10255000FF920F931F93CF93DF937C016B01EA01EE
:10256000490121E030E00E946612B4016150710916
:102570006C0D7D1D21E030E0AE01C7010E946612A6
:10258000940141E050E0B601C7010E946612CE01FD
:102590000197940141E050E0B6018E0D9F1D0E940D
:1025A0006612DF91CF911F910F91FF90EF90DF9016
:1025B000CF90BF90AF909F908F900895CF92DF9271
:1025C000EF92FF920F931F93CF93DF936C01689468
:1025D000EE24E6F8FF24F394C0E0D0E09701205504
:1025E00031098601A701BE01CE010E94A1122196E8
:1025F00082E0E81AF108C837D10581F7DF91CF9161
:102600001F910F91FF90EF90DF90CF9008958F92E0
:102610009F92AF92BF92CF92DF92EF92FF920F9371
:102620001F93CF93DF934C015B017A01CDEFD5E08F
:102630000F2EF1E0CF2EFAE0DF2EF02DFE012591D6
:102640003491D901AF71BB27C901969587959295B1
:1026500082958F7089279F7089278F719927F9013B
:10266000EF2FFF27E695EE73FF27EF5FF54F0591FC
:10267000149121E0E216F10451F4BC016A0D7B1DB6
:10268000A801CD01880D991D0E94D41016C08E9D01
:10269000B0018F9D700D9E9D700D11246A0D7B1DE4
:1026A000AE9DC001AF9D900DBE9D900D1124970170
:1026B000A701880D991D0E9466122296CC15DD0592
:1026C00009F0BCCFDF91CF911F910F91FF90EF9058
:1026D000DF90CF90BF90AF909F908F9008952F92F2
:1026E0003F924F925F926F927F928F929F92AF92A2
:1026F000BF92CF92DF92EF92FF920F931F93CF93EF
:10270000DF93CDB7DEB769970FB6F894DEBF0FBE83
:10271000CDBF882309F46AC0813009F099C08CE0EC
:1027200090E09F8B8E8BEEEBF0E0FD87EC8766C030
:10273000F301A490EE80FF80640127E030E0B12C2B
:10274000398F288FC501088C02C0959587950A940A
:10275000E2F780FF14C03B81313041F44C815D8150
:102760006A857B85C6010E94D41009C00C811D8139
:1027700029813A81A901B101C7010E946612888DA1
:10278000998D0197998F888F9FEFC91AD90AE40C08
:10279000F51CE88DF98D3196A9F63FEF631A730A9F
:1027A00088E0880E911CEE81FF8128893989E20F2B
:1027B000F31FFF83EE838A899B898816990609F0A7
:1027C000B7CFEC85FD853296FD87EC872885398566
:1027D0002F5F3F4F3987288789819A81280E391EBC
:1027E000EE89FF892E173F0718F132C086E190E08D
:1027F0009F8B8E8BE6EDF0E0FD87EC871D830C83CD
:102800002B835D8B4C8B7F876E8730E03A832983E7
:102810002901220F331F220F331F220F331F398B41
:10282000288B1A0119861886CB0140969B8B8A8BC0
:10283000EE85FF85FF83EE834F016C847D842885C0
:1028400039858C899D89280F391F3B872A8770CF4E
:1028500069960FB6F894DEBF0FBECDBFDF91CF9162
:102860001F910F91FF90EF90DF90CF90BF90AF90AE
:102870009F908F907F906F905F904F903F902F90A0
:1028800008950F931F93882319F0813089F01FC09A
:10289000611103C008E61AE402C000E018EF21E06D
:1028A00048ED50E06EE271E080E00E946F130FC0CF
:1028B000611103C008E61AE402C000E21DEF21E046
:1028C0004DED50E06AE171E081E00E946F131F91CD
:1028D0000F9108952F923F924F925F926F927F9245
:1028E0008F929F92AF92BF92CF92DF92EF92FF9220
:1028F0000F931F93CF93DF93CDB7DEB72B970FB610
:10290000F894DEBF0FBECDBF7F836E83E98250E0B7
:10291000BA01660F771F660F771F460F571F4E2CA1
:10292000512C3C011C011A82BA01681B790B798772
:1029300068874201AE80BF8078E0A70EB11C2B8370
:102940003C830D83E12E8A818530BCF5E885F985CD
:10295000E20DF31DEE5FFE4FF49030C0F0FC03C0BB
:102960000D811E2D02C00B811C819981913041F493
:10297000402F512F6A857B85C1010E94D41006C06B
:102980009201A201B601C3010E946612F6946A8503
:102990007B856F5F7F4F7B876A87C80CD91C6A1560
:1029A0007B05E1F67A817F5F7A838FEF281A380AF8
:1029B000640C751C763039F607C0F12C6E817F816E
:1029C0006B017B876A87CACF2B960FB6F894DEBF60
:1029D0000FBECDBFDF91CF911F910F91FF90EF9070
:1029E000DF90CF90BF90AF909F908F907F906F902F
:1029F0005F904F903F902F900895EF920F931F9309
:102A0000CF93DF938A3089F4E0E0F1E0268184817E
:102A1000958138E0239F800D911D11249583848337
:102A200080819181938382831DC0482FC0E0D1E0D3
:102A300009851A852F8138856C817D81EE808A8198
:102A40009B810E946A148E8190E09C01220F331FAB
:102A5000820F931F880F991F2A813B81820F931F3A
:102A60009B838A83DF91CF911F910F91EF900895FF
:102A70001F93CF93DF93EC0110E007C0FE01E80F36
:102A8000F91F80810E94FD141F5F812F90E0FE01DD
:102A900001900020E9F73197EC1BFD0B8E179F0783
:102AA00068F3DF91CF911F910895EF92FF920F93FA
:102AB0001F93CF93DF93909166049130E1F018F06B
:102AC000923071F15BC0E0E0F1E02AE030E0318368
:102AD0002083338322832AE330E03583248392E00A
:102AE00096832FEF3FEF308727832FE030E0328748
:102AF000218793E03CC0E0E0F1E02AE030E0318360
:102B00002083338322832AEC30E03583248392E0D0
:102B1000968320EE3FEF308727831286118627C0E9
:102B2000E0E0F1E029EB30E031832083338322833E
:102B300025E130E03583248392E0968320EE3FEF59
:102B4000308727831286118694E011C00C171D0769
:102B500029F48BEE92E00E94381504C08EEE92E0CC
:102B60000E9438152196CE15DF0584F307C0E92EA3
:102B7000F12CC0E0D0E0082F10E0E8CFDF91CF913A
:102B80001F910F91FF90EF9008950E9438158AE0F1
:102B90000E94FD1408950F931F93CF93DF93662334
:102BA00071F0EC016150062F10E00F5F1F4F080F0E
:102BB000191F89910E94FD14C017D107D1F7DF9129
:102BC000CF911F910F9108950E94CB158AE00E942A
:102BD000FD140895AF92BF92CF92DF92EF92FF92D1
:102BE0000F931F93CF93DF93F82E81E0F81609F42B
:102BF00072C0F81628F082E0F81609F4F0C0C0C1DF
:102C00008FE090E00E94DE1241E050E061E070E071
:102C100083E291E00E94071360E080E00E9441148B
:102C200060E081E00E944114C0E0D1E00F2EFAE0A4
:102C3000CF2ED12CF02DD982C882DB82CA82DD82D0
:102C4000CC8283E08E8380EE9FEF98878F830F2E58
:102C5000FFE0AF2EB12CF02DBA86A98600EE1FEF53
:102C60002CE130E04CE450E068E070E088E090E077
:102C70000E94A11281EF92E00E943815D982C88289
:102C8000DB82CA828AE390E09D838C8382E08E831C
:102C90008FEF9FEF98878F83BA86A986CDE8D2E021
:102CA0000DEE12E088EF92E00E943815CE010E94EE
:102CB000C515A0960C171D07A9F7E0E0F1E08AE022
:102CC00090E0938382838AE390E0958384838EE30C
:102CD0000E94FD1455C180E090E00E94DE1241E0A8
:102CE00050E061E070E083E291E00E94071360E051
:102CF00080E00E94411460E081E00E944114C0E045
:102D0000D1E00F2EFAE0CF2ED12CF02DD982C8823F
:102D1000DB82CA82DD82CC8283E08E8380EE97E004
:102D200098878F831A86198600EE17E02CE130E031
:102D30004EE550E068E070E088E090E00E94A1126B
:102D40008CEF92E00E9438156894EE24E1F8EE8250
:102D50008FEF9FEF98878F8384E093E00E94381570
:102D600082E193E00E94381580E293E00E943815DA
:102D70008EE293E00E9438158CE393E00E943815B0
:102D80008AE493E00E94381588E593E00E943815A4
:102D9000D982C882DB82CA820AEC10E01D830C83D0
:102DA000EE8280EE9FEF98878F831A86198688EFD0
:102DB00092E00E9438158DE492E00E94C51588EFDC
:102DC00092E00E9438158DE692E00E94C515DB82E4
:102DD000CA821D830C838EE30E94FD14D1C080E063
:102DE00090E00E94DE1241E050E061E070E083E29A
:102DF00091E00E94071360E080E00E94411460E0CF
:102E000081E00E94411400E018EF24EB30E044EB35
:102E100050E060E070E080E090E00E94A11208E1E4
:102E200016EC2CE330E04AE550E064EB70E080E023
:102E300090E00E94A1122CE330E04AE550E064EB00
:102E400070E08AE590E00E94A1120FEF1FEF2CE3E3
:102E500030E04CE850E064EB70E084EB90E00E94DE
:102E6000A11200E21DEF24EB30E04CE850E060E0FE
:102E700070E084EB90E00E94A112C0E0D1E00F2E40
:102E8000F5E0CF2ED12CF02DD982C882DB82CA8208
:102E900009EB10E01D830C83EE24E394EE820F2EE9
:102EA000F8E1AF2EF6ECBF2EF02DB886AF821A8671
:102EB000198688E693E00E9438158FE590E09983A3
:102EC00088839B838A831D830C83EE82B886AF82BE
:102ED0001A8619868EE693E00E94381519830883B6
:102EE0001B830A8386EE90E09D838C83EE828FE1C4
:102EF00090E098878F831A86198684E793E00E9472
:102F00003815198308831B830A83DD82CC82689479
:102F1000EE24E1F8EE8280E29DEF98878F831A8697
:102F200019868EE793E00E943815198308831B8366
:102F30000A8385E190E09D838C83EE8280EE9FEF93
:102F400098878F831A861986CDECD1E00DE412E0C4
:102F500088EF92E00E943815CE010E94C515A09618
:102F6000C017D107A9F7E0E0F1E089EB90E0938387
:102F7000828385E190E0958384838EE30E94FD1433
:102F8000F092660410928A0310928903DF91CF9128
:102F90001F910F91FF90EF90DF90CF90BF90AF9077
:102FA00008950F931F93CF938C01C62F862F90E027
:102FB000B80186599B4F0E94C91DF801019000205D
:102FC000E9F73197E01BF10BCF5FEC0FE093B8040A
:102FD000CF911F910F9108951F93CF93DF93162FD9
:102FE000C62FD0E0C659DB4F4AE0BE010E94D01D7B
:102FF000FE0101900020E9F73197EC1BFD0B1F5FEC
:10300000E10FE093B804DF91CF911F9108958EBD39
:103010000DB407FEFDCF8EB50895CF93DF93EC017D
:103020008FEF0E9407188F3F11F02197C9F791E0A9
:103030008F3F09F490E0892FDF91CF910895289A6E
:103040008FEF0E940718089528988FEF0E940718A5
:1030500082E390E00E940D18882319F00E941F1847
:1030600081E00895FF920F931F93CF93DF93C82FB2
:10307000D42F152F062FF72E882354F440E050E06C
:10308000BA0187E30E943218823008F049C0CF7736
:10309000CC3061F10E941F180E942418811124C0B5
:1030A0008C2F80640E9407188F2D0E940718802F94
:1030B0000E940718812F0E9407188D2F0E94071861
:1030C000C11104C085E90E94071805C0C83021F568
:1030D00087E80E940718C2E38FEF0E940718882331
:1030E000FCF4C150C9F71CC08FEF1AC08CE40E94D9
:1030F00007188F2D0E940718802F0E940718812F14
:103100000E9407188D2F0E94071881E00E9407185F
:103110008FEF0E940718DFCF81E00E940718DBCFF6
:10312000DF91CF911F910F91FF900895CF92DF9281
:10313000FF920F931F93CF93DF93C82F80E593ECFB
:103140000E940D18F82E811140C08C2F0E94071884
:10315000CD3F09F43FC08091B8048823E9F00AE626
:1031600014E0C0E0D0E00F2EF8EBCF2EF4E0DF2E1D
:10317000F02DF80180810E940718F80111928F014B
:103180002196F601808190E0C817D90790F3C11508
:10319000F2E0DF0718F00AC0C0E0D0E080E00E9453
:1031A00007182196C11582E0D807C0F38FEF0E945F
:1031B00007188FEF0E9407188FEF0E9407188F7172
:1031C000853031F41092B80405C0FF24F39402C096
:1031D000FF24F3948F2DDF91CF911F910F91FF90DA
:1031E000DF90CF900895CF93AB01BC01809167042D
:1031F000823049F0032E39E0440F551F661F771FB8
:103200003A95D1F7302D88E10E94321881110CC017
:103210008EEF0E949618C82F811108C00E941F18B7
:103220008FEF0E94071803C0C1E001C0C1E08C2FDE
:10323000CF9108950F931F93CF93DF938FEF0E9449
:1032400007188F3FD9F38E3F61F5CAE6D4E008EB4B
:1032500014E08FEF0E9407188993C017D107C9F7B0
:10326000C2EBD1E08FEF0E9407182197D9F7CEE487
:10327000D0E02197F80182918F01811103C020973E
:10328000C1F711C08FEF0E9407188FEF0E94071837
:10329000209711F0CE5F01C0C0E0C093B80480E079
:1032A00009C081E007C08FEF0E9407188FEF0E94CE
:1032B0000718F2CFDF91CF911F910F910895CF930F
:1032C000AB01BC0180916704823049F0032E39E0E4
:1032D000440F551F661F771F3A95D1F7302D81E1B6
:1032E0000E943218811108C00E941A19C82F81113A
:1032F00005C00E941F1803C0C1E001C0C1E08C2FAF
:10330000CF91089591E081B1892781B9FCCF1F92B7
:103310000F920FB60F9211242F933F934F935F9309
:103320006F937F938F939F93AF93BF93EF93FF938D
:1033300064E670E087E194E00E94400E81E090E056
:103340000E94DC0DFF91EF91BF91AF919F918F9102
:103350007F916F915F914F913F912F910F900FBE91
:103360000F901F9018951F920F920FB60F92112475
:103370002F933F934F935F936F937F938F939F937D
:10338000AF93BF93EF93FF9364E670E087E295E01D
:103390000E94400E0E94980DFF91EF91BF91AF9156
:1033A0009F918F917F916F915F914F913F912F915D
:1033B0000F900FBE0F901F9018951F920F920FB68F
:1033C0000F9211242F933F934F935F936F937F93AB
:1033D0008F939F93AF93BF93EF93FF9364E670E057
:1033E00080E296E00E94400E8FEF9FEF0E94DC0D7E
:1033F000FF91EF91BF91AF919F918F917F916F91CD
:103400005F914F913F912F910F900FBE0F901F90A2
:1034100018951F920F920FB60F9211242F933F937E
:103420004F935F936F937F938F939F93AF93BF93CC
:10343000EF93FF938091910390919203A091930356
:10344000B09194030196A11DB11D809391039093B7
:103450009203A0939303B093940385369105A1053D
:10346000B10550F00E94C30C109291031092920388
:103470001092930310929403FF91EF91BF91AF913B
:103480009F918F917F916F915F914F913F912F917C
:103490000F900FBE0F901F9018951F920F920FB6AE
:1034A0000F9211242F933F934F935F936F937F93CA
:1034B0008F939F93AF93BF93EF93FF9380918D036F
:1034C00090918E03A0918F03B09190030196A11D5E
:1034D000B11D80938D0390938E03A0938F03B093BF
:1034E0009003409115045091160460E070E0481775
:1034F00059076A077B0778F4E0E7F0E080818B7F6B
:1035000080830E942F0E10928D0310928E031092D2
:103510008F0310929003FF91EF91BF91AF919F9114
:103520008F917F916F915F914F913F912F910F906C
:103530000FBE0F901F9018951F920F920FB60F920B
:1035400011242F933F934F935F936F937F938F93A8
:103550009F93AF93BF93EF93FF930E945C108432CD
:1035600049F481E080938B0394E29093B1038093BC
:103570008C0317C08A3239F480918B03882389F039
:103580000E948A0E0EC090918B03992351F0909166
:103590008C03E92FF0E0EF54FC4F80839F5F909302
:1035A0008C03FF91EF91BF91AF919F918F917F918C
:1035B0006F915F914F913F912F910F900FBE0F90A0
:1035C0001F9018955058BB27AA270E94FA1A0C94EE
:1035D000CA1C0E94BC1C38F00E94C31C20F039F4A5
:1035E0009F3F19F426F40C94921C0EF4E095E7FB2F
:1035F0000C948C1CE92F0E94DB1C58F3BA1762074D
:1036000073078407950720F079F4A6F50C94FD1C48
:103610000EF4E0950B2EBA2FA02D0B01B9019001ED
:103620000C01CA01A0011124FF27591B99F0593F31
:1036300050F4503E68F11A16F040A22F232F342F79
:103640004427585FF3CF469537952795A795F040C7
:103650005395C9F77EF41F16BA0B620B730B840BDC
:10366000BAF09150A1F0FF0FBB1F661F771F881F94
:10367000C2F70EC0BA0F621F731F841F48F48795EC
:1036800077956795B795F7959E3F08F0B0CF9395DE
:10369000880F08F09927EE0F979587950895DF9387
:1036A000DD27B92FBF7740E85FE3161617064807F6
:1036B0005B0718F4D92F0E94041D9F938F937F936B
:1036C0006F930E94791DE0E9F0E00E94951C0E9432
:1036D000CA1C2F913F914F915F910E941F1DDD23C6
:1036E00051F09058A2EA2AED3FE049EC5FE3D07830
:1036F0005D270E94FA1ADF910C94CA1C0E94681C74
:1037000008F481E008950E94971B0C94CA1C0E9443
:10371000C31C58F00E94BC1C40F029F45F3F29F004
:103720000C948C1C51110C94FE1C0C94921C0E9445
:10373000DB1C68F39923B1F3552391F3951B550BCB
:10374000BB27AA2762177307840738F09F5F5F4F74
:10375000220F331F441FAA1FA9F335D00E2E3AF0B3
:10376000E0E832D091505040E695001CCAF72BD0CB
:10377000FE2F29D0660F771F881FBB1F261737071C
:103780004807AB07B0E809F0BB0B802DBF01FF274E
:1037900093585F4F3AF09E3F510578F00C948C1C83
:1037A0000C94FE1C5F3FE4F3983ED4F38695779526
:1037B0006795B795F7959F5FC9F7880F911D969507
:1037C000879597F90895E1E0660F771F881FBB1F63
:1037D000621773078407BA0720F0621B730B840B10
:1037E000BA0BEE1F88F7E09508950E94FC1B6894C1
:1037F000B1110C94FE1C08950E94E31C88F09F57A1
:1038000098F0B92F9927B751B0F0E1F0660F771F04
:10381000881F991F1AF0BA95C9F714C0B13091F0FA
:103820000E94FD1CB1E008950C94FD1C672F782FB9
:103830008827B85F39F0B93FCCF3869577956795BF
:10384000B395D9F73EF490958095709561957F4F2B
:103850008F4F9F4F0895E89409C097FB3EF49095D1
:103860008095709561957F4F8F4F9F4F9923A9F059
:10387000F92F96E9BB279395F695879577956795E8
:10388000B795F111F8CFFAF4BB0F11F460FF1BC02C
:103890006F5F7F4F8F4F9F4F16C0882311F096E9BF
:1038A00011C0772321F09EE8872F762F05C066236D
:1038B00071F096E8862F70E060E02AF09A95660F26
:1038C000771F881FDAF7880F9695879597F90895DF
:1038D000990F0008550FAA0BE0E8FEEF1616170621
:1038E000E807F907C0F012161306E407F50798F089
:1038F000621B730B840B950B39F40A2661F0232BA2
:10390000242B252B21F408950A2609F4A140A6951D
:103910008FEF811D811D089597F99F6780E870E002
:1039200060E008959FEF80EC0895DF93CF931F939D
:103930000F93FF92EF92DF927B018C01689406C097
:10394000DA2EEF010E941F1DFE01E894A59125913A
:10395000359145915591A6F3EF010E94FA1AFE01A7
:103960009701A801DA9469F7DF90EF90FF900F912B
:103970001F91CF91DF91089500240A94161617061F
:1039800018060906089500240A9412161306140650
:1039900005060895092E0394000C11F4882352F0B3
:1039A000BB0F40F4BF2B11F460FF04C06F5F7F4F6B
:1039B0008F4F9F4F089557FD9058440F551F59F052
:1039C0005F3F71F04795880F97FB991F61F09F3F0C
:1039D00079F087950895121613061406551FF2CF35
:1039E0004695F1DF08C0161617061806991FF1CF85
:1039F00086957105610508940895E894BB276627AC
:103A00007727CB0197F908959B01AC0160E070E046
:103A100080E89FE30C94831B0E941F1D0C94CA1C1A
:103A20000E94BC1C38F00E94C31C20F0952311F0AA
:103A30000C948C1C0C94921C11240C94FE1C0E945F
:103A4000DB1C70F3959FC1F3950F50E0551F629FEB
:103A5000F001729FBB27F00DB11D639FAA27F00DE7
:103A6000B11DAA1F649F6627B00DA11D661F829F0E
:103A70002227B00DA11D621F739FB00DA11D621FF3
:103A8000839FA00D611D221F749F3327A00D611D10
:103A9000231F849F600D211D822F762F6A2F1124F2
:103AA0009F5750409AF0F1F088234AF0EE0FFF1F25
:103AB000BB1F661F771F881F91505040A9F79E3F7C
:103AC000510580F00C948C1C0C94FE1C5F3FE4F3B9
:103AD000983ED4F3869577956795B795F795E795D2
:103AE0009F5FC1F7FE2B880F911D9695879597F9DB
:103AF00008959B01AC010C940C1D97FB072E16F446
:103B0000009407D077FD09D00E94971D07FC05D0CF
:103B10003EF4909581959F4F0895709561957F4FE4
:103B20000895EE0FFF1F0590F491E02D0994AA1B54
:103B3000BB1B51E107C0AA1FBB1FA617B70710F098
:103B4000A61BB70B881F991F5A95A9F780959095CA
:103B5000BC01CD010895FC0188279927E8942191A3
:103B60002032E9F3293010F02E30C8F32B3241F027
:103B70002D3239F4689404C00E94DB1D820F911D20
:103B8000219120532A30C0F31EF4909581959F4FC8
:103B90000895FB01DC0101900D920020E1F70895EA
:103BA000BB274A3031F4992322F4BDE290958195E8
:103BB0009F4F0C94E41D7AE0979F902D879F802D56
:103BC000910D11240895BB27FB015527AA27880FC3
:103BD000991FAA1FA41710F0A41B83955051B9F781
:103BE000A05DAA3308F0A95DA193009779F7B11100
:103BF000B1931192CB010C94FD1DDC01FC01672FE8
:103C000071917723E1F7329704C07C916D937083B3
:0E3C10006291AE17BF07C8F30895F894FFCF76
:103C1E0000000000000001FFFF0000583A000A59A2
:103C2E003A0030303A30303A30300030302F3030C9
:103C3E002F303000252D6400506F77657220436F52
:103C4E0075706C6520544D0A00496E697469616C1B
:103C5E00697A696E67205346582E2E2E0A00496ED9
:103C6E00697469616C697A696E67204750532E2EAC
:103C7E002E0A00496E697469616C697A696E6720F3
:103C8E004469736B2E2E2E0A00436865636B696E52
:103C9E0067205369676E61747572652E2E2E0A0049
:103CAE00466F726D617474696E6720446F6E652E17
:103CBE002E2E0A0044617461204C6F616465642E7F
:103CCE002E2E0A00436F6E6669677572696E6720E5
:103CDE0053797374656D2E2E2E0A00820D536C650A
:103CEE0065700000000000000000000000000000F1
:103CFE000000000000000000000000820D5265630D
:103D0E006F766572000000000000000000000000E9
:103D1E000000000000000000000000820D4750531C
:103D2E000000000000000000000000000000000085
:103D3E000000000000000000000000070D4578693B
:103D4E0074000000000000000000000000000000F1
:103D5E000000000000000000000000820D5361769C
:103D6E006520436F6F7264696E61746500000000B8
:103D7E000000000000000000000000070D457869FB
:103D8E0074000000000000000000000000000000B1
:103D9E000000000000000000000000190D4E6176CA
:103DAE0069676174696F6E20446174610000000080
:103DBE0000000000000000000000002C0D54726195
:103DCE006365204D6F646500000000000000000078
:103DDE0000000000000000000000004D0E546F6750
:103DEE00676C652042757A7A6572000000000000EB
:103DFE0000000000000000000000003E0A00200A43
:103E0E00004D41494E0A0A002020200044454255EB
:103E1E00470A0A0054696D65202855544329203AF3
:103E2E000A0044617465202020202020203A0A00D8
:103E3E0044617461205374617475733A0A004C6165
:103E4E007469747564652020203A0A004C6F6E67A1
:103E5E00697475646520203A0A00537065656420A4
:103E6E0020202020203A0A00436F757273652020AF
:103E7E002020203A0A0A0A004E6F773A20004C6141
:103E8E0073743A0054524143454D4F4445004F70B0
:083E9E0074696F6E733A0000B5
:00000001FF
