S014000053656E696F7244657369676E2E7372656346
S11300000C943E040C945B040C945B040C945B040D
S11300100C945B040C945B040C945B040C945B04E0
S11300200C945B040C945B040C945B040C945B04D0
S11300300C945B040C945B040C945B040C945B04C0
S11300400C945B040C945B040C945B040C945B04B0
S11300500C945B040000000000000000000000009D
S113006000000000000080000000F0000000FC0020
S113007000807F0000E07F0000F87F0000FF3F0069
S1130080C0FF3F00F0FF3F00FEFF1F00FFFF1F0007
S1130090FEFF1F00F0FF3F00C0FF3F0000FF3F00D6
S11300A000F87F0000E07F0000807F000000FC007B
S11300B00000F000000080000000000000000000CC
S11300C0000000000000000000000000000000002C
S11300D00000000000000000000080000000F000AC
S11300E00000FC0000A07F0000F87F0000FF7F00FC
S11300F0C0FF3F00F6FF3F00FFFF3F00FFFF1F0070
S1130100FCFF0F00F8FF0F00E0FF1F0080FF1F003F
S113011000FC1F0000F03F0000C03F0000C03F0093
S113012000007E0000007800000040000000000095
S113013000000000000000000000000000000000BB
S113014000000000000000000000000000000000AB
S1130150000000010000F8010040FF0100F8FF006A
S1130160C0FF7F00F6FF7F00FFFF3F00FEFF3F0060
S1130170FCFF3F00F8FF1F00E0FF0F0080FF0F00AF
S113018000FF1F0000FC1F0000F81F0000E01F001C
S113019000E01F0000001F0000003C0000003800C9
S11301A0000020000000000000000000000000002B
S11301B0000000000000000000000000000000003B
S11301C00000000000000000000040020040FB01AD
S11301D000F6FF01F6FFFF00FFFFFF00FEFF3F00F8
S11301E0F8FF3F00F8FF3F00E0FF1F00C0FF0F00D3
S11301F080FF0F0000FE1F0000FE0F0000F80F003C
S113020000E01F0000E01F0000800E0000000E0050
S113021000001E00000010000000000000000000AC
S113022000000000000000000000000000000000CA
S113023000000000000000000000000000000000BA
S11302400000D202ACFFFF03FFFFFF03FEFFFF002D
S1130250F8FFFF00F8FFBF00E0FF3F00E0FF3F00B2
S113026040FF0F0000FF0F0000FE0F0000F80F001A
S113027000F80F0000F00F0000E00F0000800F00F6
S113028000800F0000000F0000000C0000000000C0
S1130290000000000000000000000000000000005A
S11302A0000000000000000000000000000000004A
S11302B00000000024050000FEFFAF05FEFFFF0361
S11302C0F8FFFF03F0FFFF01E0FFFF00E0FF3F0046
S11302D080FF3F0080FF2F0000FE0F0000FE0F0094
S11302E000FC0F0000F80F0000F80F0000F00F00F2
S11302F000C007000080070000800700000007001E
S113030000000200000000000000000000000000E7
S113031000000000000000000000000000000000D9
S11303200000000008000000DC070000FC7F0D0056
S1130330F8FFFF05F0FFFF07E0FFFF03E0FFFF000A
S1130340C0FFFF00C0FF3F0000FF3F0000FF0F00A1
S113035000FE070000FC070000F8070000F8070093
S113036000F0070000E0070000C0030000C0030025
S113037000800300000003000000010000000000F2
S11303800000000000000000000000000000000069
S1130390000000000C0000007C020000FC1B0000B8
S11303A0F0FF0500F0FF3F00E0FFFF09E0FFFF075B
S11303B0C0FFFF03C0FFFF0080FFFF0000FF3F00FE
S11303C000FF1F0000FE070000FE070000FC0700FE
S11303D000FC070000F0030000F0030000E003004D
S11303E000E0010000C00100008001000080000066
S11303F000000000000000000000000000000000F9
S1130400000000001000000038000000F8030000A5
S1130410F01F0000E0FF0200E0FF1B00C0FF5F01CF
S1130420C0FFFF0380FFFF0F80FFFF0700FFFF00F7
S113043000FFBF0000FE3F0000FE0F0000FC0300B1
S113044000FC030000FC030000F8010000F80100B8
S113045000F0010000F0000000E0000000C0000017
S11304600040000000000000000000000000000048
S11304700000000000000000700000007001000097
S1130480E01F0000E03F0000E0BF0000C0FF0F00DD
S1130490C0FF1F00C0FFFF01C0FFFF0380FFFF0F6D
S11304A000FFFF0500FFFF0000FE3F0000FE1700F5
S11304B000FE030000FE030000FC030000F801003E
S11304C000F8000000F80000007800000070000050
S11304D00060000000200000000000000000000098
S11304E0000000000000000060000000F0000000B8
S11304F0E00B0000C02F0000C03F0000C0FF000060
S1130500C0FF030080FF1F0080FF7F0080FFFF010A
S113051000FFFF0300FFFF0F00FFFF0700FFFF00C6
S113052000FF1F0000FE030000FE030000FC0100AA
S113053000FC010000FC000000FC0000003C000086
S1130540003800000030000000100000000000002F
S11305500000000000000000A0000000E000000017
S1130560C0030000C00F0000C03F0000807F0000F7
S1130570807F010080FF050080FF170080FF1F00BF
S113058000FF7F0000FFFF0100FFFF0300FFFF0BE0
S113059000FFFF0700FFFF0000FF1F0000FE010037
S11305A000FE010000FE0000007C0000007C000052
S11305B0001C0000001800000008000000000000FB
S11305C0000000000000000040000000C001000026
S11305D0C003000080070000801F0000807F00002F
S11305E0807F000080FF010080FF030080FF0F0078
S11305F000FF1F0000FF3F0000FF7F0000FFFF011E
S113060000FFFF0300FFFF0B00FFFF0700FF570081
S113061000FE030000FE000000FE0000003E00009B
S1130620003E0000000E0000000E00000006000066
S113063000000000000000000000000000030000B3
S11306408003000000070000001F0000803F00003E
S113065000BF000000FF000080FF000080FF0300D7
S113066080FF0F0000FF1F0000FF3F0000FF3F005E
S113067000FF7F0000FFFF0100FFFF0300FFFF07F3
S113068000FFFF0200FF0D0000FF000000DF00007C
S1130690001F0000001F0000000F00000007000002
S11306A00001000000000000000000000002000043
S11306B00006000000070000001E0000001E0000ED
S11306C0007F000000FF000000FF010000FF0100A8
S11306D000FF030000FF070000FF0F0000FF1F00E2
S11306E000FF3F0000FF3F0000FFFF0000FFFF018D
S11306F080FFFF0100FFFF0300FFFD03807F000078
S1130700807F0000801F0000801F00008003000025
S11307108003000000000000000000000000000052
S113072000040000000E0000000E0000003E000067
S1130730003E0000007E000000FE000000FE0100FC
S113074000FE010000FF050000FF070000FF0F008E
S113075000FF0F0000FF3F0080FF3F0080FF7F008D
S113076080FFFF0080FFFF0180FFFF0180FFFF018A
S1130770807F3203803F0000C00700008007000034
S113078080010000400000000000000000000000A4
S11307900000000000080000001C0000003C0000F5
S11307A0007C0000007C000000FC000000FE000053
S11307B000FE010000FE030000FE030000FE07002F
S11307C000FF0F0000FF0F0000FF3F0080FF3F000D
S11307D080FF3F0080FF7F0080FF7F0080FFFF00DD
S11307E0C0FFFF01C07FFE01C03F8003C0070000BF
S11307F0C0010000E0000000000000000000000054
S1130800000000000000000000300000003800007C
S11308100078000000F8000000F8000000F8010073
S113082000FC010000FC030000FE030000FE0300C6
S113083000FE070000FF070000FF0F0080FF0F000D
S113084080FF3F0080FF3F0080FF3F0080FF7F006C
S1130850C0FF7F00C0FFFF00E03FFF00E01FF80083
S1130860E003C00170000000000000000000000070
S113087000000000000000000000000011241FBE62
S1130880CFE5D4E0DEBFCDBF10E0A0E6B0E0EAE6FD
S1130890F0E102C005900D92A036B107D9F720E02F
S11308A0A0E6B0E001C01D92AA37B207E1F70E94AA
S11308B0E5070C9433080C94000087B38A6B87BB5C
S11308C080E58DB9C39A08958FB9779BFECF0895BB
S11308D098B3977E98BB9AE19A95F1F700C00E946D
S11308E06404C39A0895C49A95E09A95F1F70000B8
S11308F0C3980E946404C39A08950E945D0481E031
S11309000E9468048FE39CE90197F1F700C000009E
S113091088E20E94680480EC0E94680486E20E94D7
S1130920730481EC0E94680481E10E94730485ECE5
S11309300E9468048CE50E9473048CE40E94730492
S113094087EC0E94680484E90E94730486E30E9491
S1130950680488E40E9473048AE30E94680485E5BD
S11309600E94730481EB0E94680480E00E94730477
S113097088E10E94730482EF0E94680488E00E9468
S1130980730486E20E94680481E00E94730480EE8E
S11309900E9468048FE10E9473048AE10E94730438
S11309A088E10E9473048AE00E9473048FE00E942D
S11309B0730486E00E94730485E40E94730487E84C
S11309C00E94730482E30E9473048AE00E94730409
S11309D087E00E94730482E00E94730487E00E940F
S11309E0730485E00E94730480E00E94730481EE26
S11309F00E94680480E00E94730485E20E947304EC
S1130A0087E20E94730485E00E94730480E10E94DF
S1130A10730489E00E9473048AE30E94730488E7E4
S1130A200E9473048DE40E94730485E00E947304A1
S1130A3088E10E9473048DE00E94730488E30E949D
S1130A4073048AE30E9473048FE10E9473048AE2B0
S1130A500E94680480E00E94730480E00E94730492
S1130A6080E00E9473048FEE0E9473048BE20E9464
S1130A70680480E00E94730480E00E94730481E0B3
S1130A800E9473048FE30E94730487EB0E9468043E
S1130A9087E00E94730486EB0E9468048AE00E9447
S1130AA0730482E80E94730487E20E94730480E066
S1130AB00E94730481E10E9468049FEF21EE84E0A8
S1130AC0915020408040E1F700C0000089E20E947C
S1130AD068049FEF21EE84E0915020408040E1F7CC
S1130AE000C000008CE20E94680486E30E9468044F
S1130AF088E20E94730410927000109279000895A5
S1130B00CF93C82F892F0E9473048C2F0E947304E3
S1130B10CF910895CF92DF92EF92FF920F931F939C
S1130B20CF93DF93D82EC92E162F072FF42EE52E40
S1130B30C22FD32F8AE20E9468048C2D0E94730472
S1130B408D2D0E9473048E2D0E9473048F2D0E949C
S1130B5073048BE20E946804802F0E947304812F27
S1130B600E9473048D2F0E9473048C2F0E947304BF
S1130B708CE20E946804DF91CF911F910F91FF9046
S1130B80EF90DF90CF900895CF93DF93EA019B011C
S1130B90AC010E948A05CE010E948005DF91CF91AD
S1130BA008952F923F924F925F926F927F928F920D
S1130BB09F92AF92BF92CF92DF92EF92FF920F93E8
S1130BC01F93CF93DF93CDB7DEB769970FB6F89431
S1130BD0DEBF0FBECDBFE0917900E11100C13F83BC
S1130BE02E833A017F8B6E8B9D8B8C8B9A01A3E8AD
S1130BF0BDE20E942408929582958F7089279F7088
S1130C0089274AE5489F9001499F300D1124C3016B
S1130C10821B930B9C01ADECBCEC0E9424089C014C
S1130C20369527953695279544E7429FC001439F03
S1130C30900D11248C5A9F4F23012AE5421A510822
S1130C402C893D892E503109398728872E893F897F
S1130C502E503109398B288B8A8B9B8B9C01205910
S1130C603F4F3F872E873B832A835C01C12CD12CC5
S1130C70130134EB231A3108C3018E5091409B8732
S1130C808A870F2EFCE18F2E912CF02D82C09AE5DD
S1130C906916710498F4F50185919591A591B49123
S1130CA09401201B310B04C0B695A79597958795A1
S1130CB02A95D2F7282F2170298341C03AE543169B
S1130CC0510490F4E88DF98D85919591A591B49195
S1130CD00C2C04C0B695A795979587950A94D2F7DE
S1130CE0282F217029832BC03AE52316310490F470
S1130CF0EA81FB8185919591A591B491002E04C060
S1130D00B695A795979587950A94D2F7282F2170C1
S1130D10298315C08A859B858A35910580F4F7015E
S1130D2085919591A591B4910C8404C0B695A7952D
S1130D30979587950A94D2F7282F217029833981B2
S1130D40313051F44E815F816C817D818885998534
S1130D50800F911F0E94C4050F5F1F4F888D998DCE
S1130D600496998F888F94E0E91AF1080D311105E2
S1130D7009F08DCF2FEFC21AD20A34E0A30EB11CB2
S1130D808A819B8104979B838A839DE1C916D10440
S1130D90A1F0EE84FF842A89288F3B89398F00E0F3
S1130DA010E0C4018C199D099D878C872889398995
S1130DB02C0D3D1D3D832C836ACFE1E7F0E02C89A7
S1130DC03D89318320838E899F89938382837582B1
S1130DD064822E813F813783268381E080876996F0
S1130DE00FB6F894DEBF0FBECDBFDF91CF911F9138
S1130DF00F91FF90EF90DF90CF90BF90AF909F90B6
S1130E008F907F906F905F904F903F902F900895B8
S1130E10AF92BF92CF92DF92EF92FF920F931F9304
S1130E20CF93DF937A01590121503109260F371FDF
S1130E3041505109480F591F0E948A05A114B10459
S1130E4089F416C0C0E0D0E0C8010E948005219654
S1130E50EC16FD06C9F78FEFC81AD80AAC14BD0406
S1130E6019F406C0C12CD12CE114F10459F7F3CFC5
S1130E70DF91CF911F910F91FF90EF90DF90CF9072
S1130E80BF90AF9008950F931F938C0120EF30E033
S1130E9040E451E060E070E080E090E00E940807E8
S1130EA01F910F9108952F923F924F925F926F92EC
S1130EB07F928F929F92AF92BF92CF92DF92EF92E6
S1130EC0FF920F931F93CF93DF9300D000D000D0F5
S1130ED0CDB7DEB7E0917000E1115EC03501DC8270
S1130EE0CB82FA82E982780119012A016B015C0143
S1130EF089819A818A0D9B1D9E838D834501840E71
S1130F00951E8815990590F48301910141E050E004
S1130F10B6018D819E810E9408078D819E818E0D70
S1130F209F1D9E838D838815990570F38B819C8109
S1130F308C0D9D1D9E838D834601820C931C881508
S1130F40990590F4830121E030E0A2016D817E8156
S1130F50C5010E9408078D819E818E0D9F1D9E8371
S1130F608D838815990570F3E0E6F0E0B182A082E4
S1130F70D382C2825582448237822682F586E486F1
S1130F8089819A81918780878B819C8193878287CD
S1130F907786668681E0808B26960FB6F894DEBF4E
S1130FA00FBECDBFDF91CF911F910F91FF90EF90B6
S1130FB0DF90CF90BF90AF909F908F907F906F9075
S1130FC05F904F903F902F900895AF92BF92CF9231
S1130FD0DF92EF92FF920F931F930E947D048FE1A3
S1130FE090E00E9443070F2EF0EEAF2EBB24BA947C
S1130FF0F02D0F2EFAE0CF2ED12CF02D0F2EFAE08B
S1131000EF2EF12CF02D07E110E028EC30E048EC55
S113101050E064E170E084E190E00E94530720E036
S113102038EF43E651E066E970E086E990E00E941B
S1131030D10580E090E01F910F91FF90EF90DF9039
S1131040CF90BF90AF900895A29FB001B39FC0010D
S1131050A39F700D811D1124911DB29F700D811DE0
S10D10601124911D0895F894FFCFA8
S9030000FC
