S014000053656E696F7244657369676E2E7372656346
S11300000C94A8020C94C5020C94C5020C94C5026D
S11300100C94C5020C94C5020C94C5020C94C50240
S11300200C94C5020C94C5020C94C5020C94F305FF
S11300300C94C5020C94C5020C94C5020C94C50220
S11300400C94C5020C94C5020C94C5020C94C50210
S11300500C94C50200000000003E5B4F5B3E3E6B0B
S11300604F6B3E1C3E7C3E1C183C7E3C181C577D4E
S1130070571C1C5E7F5E1C00183C1800FFE7C3E79A
S1130080FF0018241800FFE7DBE7FF30483A060EAC
S11300902629792926407F050507407F05253F5AF3
S11300A03CE73C5A7F3E1C1C08081C1C3E7F142263
S11300B07F22145F5F005F5F06097F017F0066890E
S11300C0956A606060606094A2FFA29408047E0454
S11300D00810207E201008082A1C08081C2A08087A
S11300E01E101010100C1E0C1E0C30383E3830063A
S11300F00E3E0E06000000000000005F0000000736
S1130100000700147F147F14242A7F2A1223130863
S1130110646236495620500008070300001C22413F
S1130120000041221C002A1C7F1C2A08083E0808E3
S11301300080703000080808080800006060002093
S1130140100804023E5149453E00427F4000724976
S11301504949462141494D331814127F102745451A
S113016045393C4A49493141211109073649494930
S113017036464949291E000014000000403400009E
S11301800008142241141414141400412214080207
S1130190015909063E415D594E7C1211127C7F497A
S11301A04949363E414141227F4141413E7F4949CF
S11301B049417F090909013E414151737F080808FB
S11301C07F00417F41002040413F017F08142241CC
S11301D07F404040407F021C027F7F0408107F3E26
S11301E04141413E7F090909063E4151215E7F0993
S11301F0192946264949493203017F01033F4040FA
S1130200403F1F2040201F3F4038403F63140814E4
S11302106303047804036159494D43007F4141411C
S11302200204081020004141417F040201020440FD
S113023040404040000307080020545478407F2881
S11302404444383844444428384444287F38545477
S1130250541800087E090218A4A49C787F0804049A
S11302607800447D40002040403D007F1028440039
S113027000417F40007C047804787C0804047838CA
S113028044444438FC1824241818242418FC7C08FA
S1130290040408485454542404043F44243C404077
S11302A0207C1C2040201C3C4030403C442810282A
S11302B0444C9090907C4464544C44000836410073
S11302C00000770000004136080002010204023CED
S11302D02623263C1EA1A161123A4040207A3854BC
S11302E05455592155557941225454784221555435
S11302F0784020545579400C1E5272123955555588
S113030059395454545939555454580000457C4172
S11303100002457D420001457C407D1211127DF0B2
S1130320282528F07C545545002054547C547C0ADC
S1130330097F4932494949323A4444443A324A48A5
S113034048303A4141217A3A42402078009DA0A0A9
S11303507D3D4242423D3D4040403D3C24FF2424FB
S1130360487E4943662B2FFC2F2BFF0929F620C01A
S1130370887E090320545479410000447D4130486B
S1130380484A32384040227A007A0A0A727D0D19AE
S1130390317D2629292F28262929292630484D4010
S11303A020380808080808080808382F10C8ACBA0C
S11303B02F102834FA00007B000008142A1422228B
S11303C0142A1408AA005500AAAA55AA55AA00007E
S11303D000FF00101010FF00141414FF001010FF91
S11303E000FF1010F010F0141414FC001414F700A3
S11303F0FF0000FF00FF1414F404FC141417101F72
S113040010101F101F1414141F00101010F00000FF
S113041000001F101010101F10101010F01000001A
S113042000FF101010101010101010FF100000002A
S1130430FF140000FF00FF00001F10170000FC0461
S1130440F414141710171414F404F40000FF00F744
S113045014141414141414F700F7141414171410A7
S1130460101F101F141414F4141010F010F00000D6
S11304701F101F0000001F14000000FC140000F0F7
S113048010F01010FF10FF141414FF141010101F9C
S113049000000000F010FFFFFFFFFFF0F0F0F0F0AD
S11304A0FFFFFF0000000000FFFF0F0F0F0F0F38CA
S11304B044443844FC4A4A4A347E02020606027E18
S11304C0027E0263554941633844443C04407E2023
S11304D01E2006027E020299A5E7A5991C2A492A34
S11304E01C4C7201724C304A4D4D303048784830C3
S11304F0BC625A463D3E494949007E0101017E2ABB
S11305002A2A2A2A44445F444440514A44404044ED
S11305104A51400000FF0103E080FF000008086B1F
S11305206B083612362436060F090F060000181819
S11305300000001010003040FF0101001F01011EE7
S113054000191D1712003C3C3C3C00000000000058
S113055011241FBECFE5D4E0DEBFCDBF10E0A0E67E
S1130560B0E0EAE2FDE002C005900D92A43EB107BE
S1130570D9F721E0A4EEB0E001C01D92A138B20782
S1130580E1F70E9464060C9493060C94000084E046
S11305908CBB1FBA1EBA0895E199FECF9FBB8EBBD8
S11305A0E09A8DB3089582E090E00E94CC0280939B
S11305B0EB0083E090E00E94CC028093E80080E0AE
S11305C090E00E94CC028093E90081E090E00E94D8
S11305D0CC028093EA00089590BD89B988E18AB974
S11305E08EE880BD08955D9BFECF8CB908950F936E
S11305F01F93CF93DF93C5E9D0E008EC10E0899115
S11306000E94F3020C171D07D1F7C4E8D0E005E9F6
S113061010E089910E94F3020C171D07D1F7CBE675
S1130620D0E004E810E089910E94F3020C171D0742
S1130630D1F7DF91CF911F910F9108955F9BFECF6A
S11306408CB10895ECEEF0E084E691E01192E817A5
S1130650F907E1F71092E5001092E40008950E9472
S113066022031092E400579A08950F931F93CF9397
S11306701092E400A9E6B1E0ECEEF0E08781880F87
S1130680982F990F990F890F9085890F8C938185E5
S1130690880F982F990F990F890F9285890F1196BA
S11306A08C9311978385880F982F990F990F890F31
S11306B09485890F12968C931297828916968C933F
S11306C01697448928EE33E0429FC001439F900D62
S11306D011244589C4E6BC01C49F600D711D112419
S11306E09689892F90E08C01000F111FAC01440FF3
S11306F0551F440F551F440F551FC801840F951FE4
S1130700860F971F4789840F911D18969C938E938B
S11307101797418D429FC001439F900D1124428D34
S1130720BC01C49F600D711D1124938D892F90E02D
S11307308C01000F111FAC01440F551F440F551FAE
S1130740440F551FC801840F951F860F971F448DB2
S1130750840F911D1A969C938E931997868D1B96E0
S11307608C931B9760A180E197E2689FA001699F29
S1130770500D112461A1629FC001639F900D11244B
S1130780480F591F82A1C89F400D511D112483A1F8
S113079090E0BC01660F771F880F991F880F991F7F
S11307A0880F991F860F971F480F591F84A1480F60
S11307B0511D052E000C660B770B1C964D935D9313
S11307C06D937C931F9746A1429FC001439F900D58
S11307D0112427A1AC01C29F400D511D112490A5E5
S11307E0892F90E0BC01660F771F9C01220F331FF5
S11307F0220F331F220F331FCB01820F931F840F4D
S1130800951F21A5820F911D51969C938E9350970D
S113081083A552968C93529785A553968C935397A0
S113082087A5880F982F990F990F890F90A9890F81
S113083054968C93549722A983A990E0AC01440F59
S1130840551F880F991F880F991F880F991F840FB0
S1130850951FC29F800D911D112424A9820F911D03
S113086056969C938E93559786A9880F982F990F27
S1130870990F890F97A9890F57968C93579781AD34
S1130880880F982F990F990F890F92AD890F13969E
S11308908C93139783AD880F982F990F990F890F15
S11308A094AD890F14968C93149785AD880F982F67
S11308B0990F990F890F96AD890F15968C930E9405
S11308C02F03CF911F910F9108958FB9779BFECF7E
S11308D0089598B3977E98BB9AE19A95F1F700C072
S11308E00E946504C39A0895C49A95E09A95F1F715
S11308F00000C3980E946504C39A0895CF93C82F3B
S1130900892F0E9474048C2F0E947404CF9108953F
S1130910CF92DF92EF92FF920F931F93CF93DF93C7
S1130920D82EC92E162F072FF42EE52EC22FD32F23
S11309308AE20E9469048C2D0E9474048D2D0E9409
S113094074048E2D0E9474048F2D0E9474048BE213
S11309500E946904802F0E947404812F0E947404F1
S11309608D2F0E9474048C2F0E9474048CE20E94C8
S11309706904DF91CF911F910F91FF90EF90DF9069
S1130980CF900895CF93DF93EA019B01AC010E94BD
S11309908804CE010E947E04DF91CF910895AF9226
S11309A0BF92CF92DF92EF92FF920F931F93CF9358
S11309B0DF937A01590121503109260F371F415025
S11309C05109480F591F0E948804A114B10489F4E5
S11309D016C0C0E0D0E0C8010E947E042196EC1647
S11309E0FD06C9F78FEFC81AD80AAC14BD0419F470
S11309F006C0C12CD12CE114F10459F7F3CFDF91D7
S1130A00CF911F910F91FF90EF90DF90CF90BF9007
S1130A10AF9008952F923F924F925F926F927F9280
S1130A208F929F92AF92BF92CF92DF92EF92FF92FA
S1130A300F931F93CF93DF93CDB7DEB72B970FB6EA
S1130A40F894DEBF0FBECDBF7F836E83E98250E092
S1130A50BA01660F771F660F771F460F571F4E2C7C
S1130A60512C3C011C011A82BA01681B790B79874D
S1130A7068874201AE80BF8078E0A70EB11C2B834B
S1130A803C830D83E12E8A818530BCF5E885F985A8
S1130A90E20DF31DEC5AFF4FF49030C0F0FC03C09C
S1130AA00D811E2D02C00B811C819981913041F46E
S1130AB0402F512F6A857B85C1010E94C20406C064
S1130AC09201A201B601C3010E94CF04F6946A8583
S1130AD07B856F5F7F4F7B876A87C80CD91C6A153B
S1130AE07B05E1F67A817F5F7A838FEF281A380AD3
S1130AF0640C751C763039F607C0F12C6E817F8149
S1130B006B017B876A87CACF2B960FB6F894DEBF3A
S1130B100FBECDBFDF91CF911F910F91FF90EF904A
S1130B20DF90CF90BF90AF909F908F907F906F9009
S1130B305F904F903F902F900895EF920F931F93E3
S1130B40CF93DF938A3079F4E0E6F0E02481828168
S1130B50938138E0239F800D911D11249383828318
S1130B60118210821DC0482FC0E6D0E00F81188585
S1130B702D813E816A817B81EC80888199810E94EC
S1130B800A058C8190E09C01220F331F820F931F72
S1130B90880F991F28813981820F931F9983888335
S1130BA0DF91CF911F910F91EF9008951F93CF93F1
S1130BB0DF93EC0110E007C0FE01E80FF91F80810C
S1130BC00E949D051F5F812F90E0FE01019000208F
S1130BD0E9F73197EC1BFD0B8E179F0768F3DF9144
S1130BE0CF911F9108951F920F920FB60F92112467
S1130BF02F933F934F935F936F937F938F939F9321
S1130C00AF93BF93CF93EF93FF930E941E03C82F1C
S1130C108093690089E690E00E94D6058091E60001
S1130C208F5F843018F48093E60010C01092E600C1
S1130C308091E700845F893C18F48093E70002C048
S1130C401092E70088EC90E00E94D6058091E500C0
S1130C50893710F00E942203C43249F481E0809362
S1130C60E40094E29093EC008093E5001BC0CA3248
S1130C7039F48091E4008823A9F00E94350312C05E
S1130C808091E400882371F08091E500E82FF0E082
S1130C90E451FF4FC0838F5F8093E5008C2F90E079
S1130CA00E94D605FF91EF91CF91BF91AF919F9193
S1130CB08F917F916F915F914F913F912F910F9001
S1130CC00FBE0F901F9018958FEF8ABB1BBA8DEC47
S1130CD087BB82E388BB14BA15BA82E181BB80E882
S1130CE082BB0E94C7020E94D3021092E5001092B8
S1130CF0E40087E690E00E94EC020E94F7020E9462
S1130D002F030E942F032FEF83E294EF21508040A2
S1130D109040E1F700C00000C3E3D0E00E94F70276
S10D0D202197E1F7F0CFF894FFCF1C
S1130D2A0000000001FFFF0000007C24504D544BDA
S1130D3A3330302C3230302C302C302C302C302ABA
S1130D4A32460D0A24504D544B3232302C31303055
S1130D5A2A32460D0A24504D544B3331342C302C4C
S1130D6A312C302C302C302C302C302C302C302C94
S1130D7A302C302C302C302C302C302C302C302C85
S1130D8A302C302A32390D0A0A00484F55523A207B
S1130D9A004D494E5554453A20005345434F4E445D
S1070DAA3A200000E7
S9030000FC
