S014000053656E696F7244657369676E2E7372656346
S11300000C94A8020C94C5020C94C5020C94C5026D
S11300100C94C5020C94C5020C94C5020C94C50240
S11300200C94C5020C94C5020C94C5020C94C50230
S11300300C94C5020C94C5020C94C5020C94C50220
S11300400C94C5020C94C5020C94C5020C94C50210
S11300500C94C50200000000003E5B4F5B3E3E6B0B
S11300604F6B3E1C3E7C3E1C183C7E3C181C577D4E
S1130070571C1C5E7F5E1C00183C1800FFE7C3E79A
S1130080FF0018241800FFE7DBE7FF30483A060EAC
S11300902629792926407F050507407F05253F5AF3
S11300A03CE73C5A7F3E1C1C08081C1C3E7F142263
S11300B07F22145F5F005F5F06097F017F0066890E
S11300C0956A606060606094A2FFA29408047E0454
S11300D00810207E201008082A1C08081C2A08087A
S11300E01E101010100C1E0C1E0C30383E3830063A
S11300F00E3E0E06000000000000005F0000000736
S1130100000700147F147F14242A7F2A1223130863
S1130110646236495620500008070300001C22413F
S1130120000041221C002A1C7F1C2A08083E0808E3
S11301300080703000080808080800006060002093
S1130140100804023E5149453E00427F4000724976
S11301504949462141494D331814127F102745451A
S113016045393C4A49493141211109073649494930
S113017036464949291E000014000000403400009E
S11301800008142241141414141400412214080207
S1130190015909063E415D594E7C1211127C7F497A
S11301A04949363E414141227F4141413E7F4949CF
S11301B049417F090909013E414151737F080808FB
S11301C07F00417F41002040413F017F08142241CC
S11301D07F404040407F021C027F7F0408107F3E26
S11301E04141413E7F090909063E4151215E7F0993
S11301F0192946264949493203017F01033F4040FA
S1130200403F1F2040201F3F4038403F63140814E4
S11302106303047804036159494D43007F4141411C
S11302200204081020004141417F040201020440FD
S113023040404040000307080020545478407F2881
S11302404444383844444428384444287F38545477
S1130250541800087E090218A4A49C787F0804049A
S11302607800447D40002040403D007F1028440039
S113027000417F40007C047804787C0804047838CA
S113028044444438FC1824241818242418FC7C08FA
S1130290040408485454542404043F44243C404077
S11302A0207C1C2040201C3C4030403C442810282A
S11302B0444C9090907C4464544C44000836410073
S11302C00000770000004136080002010204023CED
S11302D02623263C1EA1A161123A4040207A3854BC
S11302E05455592155557941225454784221555435
S11302F0784020545579400C1E5272123955555588
S113030059395454545939555454580000457C4172
S11303100002457D420001457C407D1211127DF0B2
S1130320282528F07C545545002054547C547C0ADC
S1130330097F4932494949323A4444443A324A48A5
S113034048303A4141217A3A42402078009DA0A0A9
S11303507D3D4242423D3D4040403D3C24FF2424FB
S1130360487E4943662B2FFC2F2BFF0929F620C01A
S1130370887E090320545479410000447D4130486B
S1130380484A32384040227A007A0A0A727D0D19AE
S1130390317D2629292F28262929292630484D4010
S11303A020380808080808080808382F10C8ACBA0C
S11303B02F102834FA00007B000008142A1422228B
S11303C0142A1408AA005500AAAA55AA55AA00007E
S11303D000FF00101010FF00141414FF001010FF91
S11303E000FF1010F010F0141414FC001414F700A3
S11303F0FF0000FF00FF1414F404FC141417101F72
S113040010101F101F1414141F00101010F00000FF
S113041000001F101010101F10101010F01000001A
S113042000FF101010101010101010FF100000002A
S1130430FF140000FF00FF00001F10170000FC0461
S1130440F414141710171414F404F40000FF00F744
S113045014141414141414F700F7141414171410A7
S1130460101F101F141414F4141010F010F00000D6
S11304701F101F0000001F14000000FC140000F0F7
S113048010F01010FF10FF141414FF141010101F9C
S113049000000000F010FFFFFFFFFFF0F0F0F0F0AD
S11304A0FFFFFF0000000000FFFF0F0F0F0F0F38CA
S11304B044443844FC4A4A4A347E02020606027E18
S11304C0027E0263554941633844443C04407E2023
S11304D01E2006027E020299A5E7A5991C2A492A34
S11304E01C4C7201724C304A4D4D303048784830C3
S11304F0BC625A463D3E494949007E0101017E2ABB
S11305002A2A2A2A44445F444440514A44404044ED
S11305104A51400000FF0103E080FF000008086B1F
S11305206B083612362436060F090F060000181819
S11305300000001010003040FF0101001F01011EE7
S113054000191D1712003C3C3C3C00000000000058
S113055011241FBECFE5D4E0DEBFCDBF10E0A0E67E
S1130560B0E0E2E9F2E102C005900D92AC37B107C8
S1130570D9F720E0ACE7B0E001C01D92A839B2077A
S1130580E1F70E94DD080C9447090C9400009FEFEA
S1130590980F983008F081E0809364000895EF92FA
S11305A0FF920F931F93CF93DF937901C0E6D0E0BE
S11305B0998388837B836A83842F0E94C702FE8287
S11305C0ED8218870F83DF91CF911F910F91FF90D8
S11305D0EF900895E0E6F0E0248130E0A901440FB3
S11305E0551F420F531F440F551FDC014A9FC00182
S11305F04B9F900D5A9F900D112440815181840F7F
S1130600951F91838083C901880F991F880F991FB3
S1130610880F991FAC01421B530B9A01269FA0011E
S1130620279F500D369F500D112482819381840F92
S1130630951F93838283089587B38A6B87BB80E574
S11306408DB9C39A08958FB9779BFECF089598B357
S1130650977E98BB0E942303C39A0895C49AC398B3
S11306600E942303C39A08950E941C0381E00E9400
S113067027038FE39CE90197F1F700C0000088E2AB
S11306800E94270380EC0E94270386E20E942E0327
S113069081EC0E94270381E10E942E0385EC0E94D5
S11306A027038CE50E942E038CE40E942E0387EC22
S11306B00E94270384E90E942E0386E30E942703F5
S11306C088E40E942E038AE30E94270385E50E94A2
S11306D02E0381EB0E94270380E00E942E0388E111
S11306E00E942E0382EF0E94270388E00E942E03BB
S11306F086E20E94270381E00E942E0380EE0E947E
S113070027038FE10E942E038AE10E942E0388E1D1
S11307100E942E038AE00E942E038FE00E942E0383
S113072086E00E942E0385E40E942E0387E80E943F
S11307302E0382E30E942E038AE00E942E0387E0A8
S11307400E942E0382E00E942E0387E00E942E0363
S113075085E00E942E0380E00E942E0381EE0E9419
S1130760270380E00E942E0385E20E942E0387E285
S11307700E942E0385E00E942E0380E10E942E0336
S113078089E00E942E038AE30E942E0388E70E94D8
S11307902E038DE40E942E0385E00E942E0388E13F
S11307A00E942E038DE00E942E0388E30E942E03F4
S11307B08AE30E942E038FE10E942E038AE20E94A4
S11307C0270380E00E942E0380E00E942E0380E035
S11307D00E942E038FEE0E942E038BE20E942703B9
S11307E080E00E942E0380E00E942E0381E00E949C
S11307F02E038FE30E942E0387EB0E94270387E0DA
S11308000E942E0386EB0E9427038AE00E942E0397
S113081082E80E942E0387E20E942E0380E00E9459
S11308202E0381E10E9427039FEF21EE84E0915083
S113083020408040E1F700C0000089E20E942703C5
S11308409FEF21EE84E0915020408040E1F700C00A
S113085000008CE20E94270386E30E94270388E2BB
S11308600E942E0310928E00109297000895CF9349
S1130870C82F892F0E942E038C2F0E942E03CF9104
S11308800895CF92DF92EF92FF920F931F93CF932D
S1130890DF93D82EC92E162F072FF42EE52EC22F44
S11308A0D32F8AE20E9427038C2D0E942E038D2DC4
S11308B00E942E038E2D0E942E038F2D0E942E0344
S11308C08BE20E942703802F0E942E03812F0E9417
S11308D02E038D2F0E942E038C2F0E942E038CE258
S11308E00E942703DF91CF911F910F91FF90EF900A
S11308F0DF90CF900895CF93DF93EA019B01AC0181
S11309000E944104CE010E943704DF91CF910895E3
S11309102F923F924F925F926F927F928F929F920B
S1130920AF92BF92CF92DF92EF92FF920F931F93F9
S1130930CF93DF9300D000D0CDB7DEB7042F10E003
S1130940009F4001019F900C900C1124EE27FF277B
S1130950E01BF10BFA83E9830E171F0724F53AC055
S11309602B813C81229FC001239F900D900D112467
S11309708E0D9F1D8816990638F0A101B501C90195
S1130980860D971D0E947B048B819C8101969C831C
S11309908B830817190724F79FEFC91AD90A0C1576
S11309A01D0554F417C019012B013C01C980DA80DC
S11309B0842F90E0880E991ECC9C7001CD9CF00C85
S11309C0F00C1124E981FA81FC83EB835601A40C19
S11309D0B51CC6CF0F900F900F900F90DF91CF9161
S11309E01F910F91FF90EF90DF90CF90BF90AF9049
S11309F09F908F907F906F905F904F903F902F903B
S1130A000895AF92BF92CF92DF92EF92FF920F932D
S1130A101F93CF93DF937A01590121503109260F97
S1130A20371F41505109480F591F0E944104A11416
S1130A30B10489F416C0C0E0D0E0C8010E943704B4
S1130A402196EC16FD06C9F78FEFC81AD80AAC1424
S1130A50BD0419F406C0C12CD12CE114F10459F7DA
S1130A60F3CFDF91CF911F910F91FF90EF90DF9023
S1130A70CF90BF90AF9008950F931F938C0120EFF8
S1130A8030E040E451E060E070E080E090E00E94FB
S1130A9001051F910F9108952F923F924F925F92FB
S1130AA06F927F928F929F92AF92BF92CF92DF927A
S1130AB0EF92FF920F931F93CF93DF93CDB7DEB7DF
S1130AC028970FB6F894DEBF0FBECDBFE0918E001D
S1130AD0E1115EC098868F82DE82CD82FC82EB8239
S1130AE068013A8329831A012B014C010F8118856F
S1130AF00E940105EB80FC80E80CF91C3401620CB7
S1130B00731CE614F70470F4850129813A8141E0ED
S1130B1050E0B201C7010E940105EC0CFD1CE61473
S1130B20F70490F3ED80FE80E40CF51C69807A8074
S1130B30640C751CE614F70468F4850121E030E0C8
S1130B40A101B701C4010E940105EC0CFD1CE614CF
S1130B50F70498F3ECE7F0E09182808253824282BA
S1130B603582248289819A8197838683D586C48637
S1130B708B819C81918780878D819E8193878287D9
S1130B80B786A6868F819885918B808B81E0828B36
S1130B9028960FB6F894DEBF0FBECDBFDF91CF917C
S1130BA01F910F91FF90EF90DF90CF90BF90AF9087
S1130BB09F908F907F906F905F904F903F902F9079
S1130BC008952F923F924F925F926F927F928F92ED
S1130BD09F92AF92BF92CF92DF92EF92FF920F93C8
S1130BE01F93CF93DF93CDB7DEB72B970FB6F8944F
S1130BF0DEBF0FBECDBF7F836E83E98250E0BA01B2
S1130C00660F771F660F771F460F571F4E2C512C08
S1130C103C011C011A82BA01681B790B7987688729
S1130C204201AE80BF8078E0A70EB11C2B833C83C9
S1130C300D83E12E8A818530BCF5E885F985E20DC6
S1130C40F31DEC5AFF4FF49030C0F0FC03C00D814B
S1130C501E2D02C00B811C819981913041F4402FDB
S1130C60512F6A857B85C1010E947B0406C09201D5
S1130C70A201B601C3010E940105F6946A857B8531
S1130C806F5F7F4F7B876A87C80CD91C6A157B0509
S1130C90E1F67A817F5F7A838FEF281A380A640C31
S1130CA0751C763039F607C0F12C6E817F816B019B
S1130CB07B876A87CACF2B960FB6F894DEBF0FBE28
S1130CC0CDBFDF91CF911F910F91FF90EF90DF90F7
S1130CD0CF90BF90AF909F908F907F906F905F90D8
S1130CE04F903F902F900895EF920F931F93CF93BF
S1130CF0DF938A3079F4E0E6F0E024818281938105
S1130D0038E0239F800D911D1124938382831182E7
S1130D1010821DC0482FC0E6D0E00F8118852D81B8
S1130D203E816A817B81EC80888199810E94E10502
S1130D308C8190E09C01220F331F820F931F880F38
S1130D40991F28813981820F931F99838883DF91AA
S1130D50CF911F910F91EF9008951F93CF93DF933D
S1130D60EC0110E007C0FE01E80FF91F80810E942A
S1130D7074061F5F812F90E0FE0101900020E9F7C7
S1130D803197EC1BFD0B8E179F0768F3DF91CF9112
S1130D901F9108950F931F9320918E002223E1F059
S1130DA020917C0030917D0082179307A8F0409138
S1130DB0800050918100240F351F8217930760F43F
S1130DC0ECE7F0E00685178526813781628173811F
S1130DD041E050E00E9401051F910F9108950F9387
S1130DE01F9320918E002223E9F020917E00309100
S1130DF07F0082179307B0F04091820050918300E6
S1130E00240F351F8217930768F4BC01ECE7F0E068
S1130E10068517854481558121E030E080819181E8
S1130E200E9401051F910F9108950F931F93CF9373
S1130E30DF9320918E002223F1F120917C003091E8
S1130E407D0082179307B8F1409180005091810092
S1130E50240F351F8217930770F5CCE7D0E06A8121
S1130E607B812E813F81260F371FAC010E944104F4
S1130E708E819F8118161906F4F4C0E0D0E00CE7C7
S1130E8010E0F80164857585CE010E94330922853E
S1130E9033858217930719F08089918903C0F8017B
S1130EA0868597850E9437042196F801868197816B
S1130EB0C817D90734F3DF91CF911F910F9108958B
S1130EC00F931F93CF93DF93EC0180918E008823BF
S1130ED081F080917E0090917F00C817D90748F077
S1130EE02091820030918300820F931FC817D90785
S1130EF058F089E690E00E94AD0660E070E08BEF68
S1130F009FEF0E94EA0239C08FE690E00E94AD068E
S1130F1060E070E088EF9FEF0E94EA020CE710E0C7
S1130F20F8018081918144815581480F591F9E01A8
S1130F30BE010E944104F8018481958118161906A6
S1130F40E4F4C0E0D0E0F80164857585CE010E9428
S1130F503309208531858217930719F08089918997
S1130F6003C0F801868597850E9437042196F8010D
S1130F7084819581C817D90734F3DF91CF911F91EC
S1130F800F91089590918E00992309F45AC08823F3
S1130F9061F1ECE7F0E020853185A901480F511D8E
S1130FA087FD5A95CA0151874087992364F420919B
S1130FB0880030918900820F931F9923E4F3909362
S1130FC0850080938400ECE7F0E08085918524859A
S1130FD03585281739074CF4821B930B28173907DA
S1130FE0DCF39093850080938400662351F1ECE751
S1130FF0F0E082859385860F911D67FD9A9593870E
S11310008287992364F42091880030918900820FAB
S1131010931F9923E4F39093870080938600ECE771
S1131020F0E08285938524853585281739074CF4AB
S1131030821B930B28173907DCF390938700809366
S1131040860008959F92AF92BF92CF92DF92EF9263
S1131050FF920F931F93CF93DF9320918E0022234F
S113106009F49FC0D82EC62EA62EB72E082F192FEE
S1131070A114B10409F440C0992493948FEFA816E5
S1131080B80609F0912CECE7F0E080819181C085ED
S1131090D185C80FD91F24813581280F391F2C17FA
S11310A03D0730F17F01C217D30719F4992031F0BD
S11310B06CC08C179D0731F4992021F0CE010E9459
S11310C0150708C0C5018C0F9D1F0E94CA06CE01DA
S11310D00E941507F70184859585C80FD91F808163
S11310E0918124813581280F391F2C173D07D8F6AB
S11310F060E08C2D0E94C2070115110509F451C04E
S1131100CC24C3940F3FFFEF1F0709F0C12CECE779
S1131110F0E082819381C285D385C80FD91F2681CF
S11311203781280F391F2C173D0748F17F01C2175B
S1131130D30719F4C11009C02DC0F7018081918132
S11311408C179D0731F4C11004C0CE010E946007C2
S113115008C0CE01801B910B0E94EF06CE010E94B5
S11311606007F70184859585C80FD91F8281938113
S113117026813781280F391F2C173D07C0F66D2DA6
S1131180619580E00E94C2070CC08C179D0709F08E
S113119099CF94CFF70180819181C817D907C9F6F7
S11311A0D4CFDF91CF911F910F91FF90EF90DF90FB
S11311B0CF90BF90AF909F9008950E94340300E0B9
S11311C010E020EE3FEF43E06AE070E08AE090E058
S11311D00E94CF0280EE97E00E943C05812C912C66
S11311E0AA24AA94BA2C0F2EFFE0CF2ED12CF02DD6
S11311F00F2EFFE0EF2EF12CF02D04E110E028EC8F
S113120030E048EC50E06AE070E08AE090E00E9450
S11312104C05C0907800D0907900E0907A00F0906E
S11312207B0020E038EF45E066E970E086E990E075
S11312300E948804C701B6010E942208F2CFAA1BAB
S1131240BB1B51E107C0AA1FBB1FA617B70710F0AD
S1131250A61BB70B881F991F5A95A9F780959095DF
S1131260BC01CD01089597FB072E16F4009407D016
S113127077FD09D00E941F0907FC05D03EF4909524
S113128081959F4F0895709561957F4F0895F894C7
S1051290FFCF8A
S11312920000000001FFFF00004641494C210053B9
S10F12A255434345535321000100000054
S9030000FC
