S014000053656E696F7244657369676E2E7372656346
S11300000C94AA040C94C7040C94C7040C94C7045D
S11300100C94C7040C94C7040C94C7040C94C70430
S11300200C94C7040C94C7040C94C7040C94130BCD
S11300300C94C7040C94C7040C94C7040C94C70410
S11300400C94C7040C94C7040C94C7040C94C70400
S11300500C94C70400000000003E5B4F5B3E3E6B07
S11300604F6B3E1C3E7C3E1C183C7E3C181C577D4E
S1130070571C1C5E7F5E1C00183C1800FFE7C3E79A
S1130080FF0018241800FFE7DBE7FF30483A060EAC
S11300902629792926407F050507407F05253F5AF3
S11300A03CE73C5A7F3E1C1C08081C1C3E7F142263
S11300B07F22145F5F005F5F06097F017F0066890E
S11300C0956A606060606094A2FFA29408047E0454
S11300D00810207E201008082A1C08081C2A08087A
S11300E01E101010100C1E0C1E0C30383E3830063A
S11300F00E3E0E06000000000000005F0000000736
S1130100000700147F147F14242A7F2A1223130863
S1130110646236495620500008070300001C22413F
S1130120000041221C002A1C7F1C2A08083E0808E3
S11301300080703000080808080800006060002093
S1130140100804023E5149453E00427F4000724976
S11301504949462141494D331814127F102745451A
S113016045393C4A49493141211109073649494930
S113017036464949291E000014000000403400009E
S11301800008142241141414141400412214080207
S1130190015909063E415D594E7C1211127C7F497A
S11301A04949363E414141227F4141413E7F4949CF
S11301B049417F090909013E414151737F080808FB
S11301C07F00417F41002040413F017F08142241CC
S11301D07F404040407F021C027F7F0408107F3E26
S11301E04141413E7F090909063E4151215E7F0993
S11301F0192946264949493203017F01033F4040FA
S1130200403F1F2040201F3F4038403F63140814E4
S11302106303047804036159494D43007F4141411C
S11302200204081020004141417F040201020440FD
S113023040404040000307080020545478407F2881
S11302404444383844444428384444287F38545477
S1130250541800087E090218A4A49C787F0804049A
S11302607800447D40002040403D007F1028440039
S113027000417F40007C047804787C0804047838CA
S113028044444438FC1824241818242418FC7C08FA
S1130290040408485454542404043F44243C404077
S11302A0207C1C2040201C3C4030403C442810282A
S11302B0444C9090907C4464544C44000836410073
S11302C00000770000004136080002010204023CED
S11302D02623263C1EA1A161123A4040207A3854BC
S11302E05455592155557941225454784221555435
S11302F0784020545579400C1E5272123955555588
S113030059395454545939555454580000457C4172
S11303100002457D420001457C407D1211127DF0B2
S1130320282528F07C545545002054547C547C0ADC
S1130330097F4932494949323A4444443A324A48A5
S113034048303A4141217A3A42402078009DA0A0A9
S11303507D3D4242423D3D4040403D3C24FF2424FB
S1130360487E4943662B2FFC2F2BFF0929F620C01A
S1130370887E090320545479410000447D4130486B
S1130380484A32384040227A007A0A0A727D0D19AE
S1130390317D2629292F28262929292630484D4010
S11303A020380808080808080808382F10C8ACBA0C
S11303B02F102834FA00007B000008142A1422228B
S11303C0142A1408AA005500AAAA55AA55AA00007E
S11303D000FF00101010FF00141414FF001010FF91
S11303E000FF1010F010F0141414FC001414F700A3
S11303F0FF0000FF00FF1414F404FC141417101F72
S113040010101F101F1414141F00101010F00000FF
S113041000001F101010101F10101010F01000001A
S113042000FF101010101010101010FF100000002A
S1130430FF140000FF00FF00001F10170000FC0461
S1130440F414141710171414F404F40000FF00F744
S113045014141414141414F700F7141414171410A7
S1130460101F101F141414F4141010F010F00000D6
S11304701F101F0000001F14000000FC140000F0F7
S113048010F01010FF10FF141414FF141010101F9C
S113049000000000F010FFFFFFFFFFF0F0F0F0F0AD
S11304A0FFFFFF0000000000FFFF0F0F0F0F0F38CA
S11304B044443844FC4A4A4A347E02020606027E18
S11304C0027E0263554941633844443C04407E2023
S11304D01E2006027E020299A5E7A5991C2A492A34
S11304E01C4C7201724C304A4D4D303048784830C3
S11304F0BC625A463D3E494949007E0101017E2ABB
S11305002A2A2A2A44445F444440514A44404044ED
S11305104A51400000FF0103E080FF000008086B1F
S11305206B083612362436060F090F060000181819
S11305300000001010003040FF0101001F01011EE7
S113054000191D1712003C3C3C3C00000000000D4B
S1130550000E000F0010002B002C002D142E142F61
S113056014301431003200330049004A004B144C5B
S1130570144D144E144F1450145114520068006951
S1130580146A146B146C146D146E146F147014715B
S1130590007200730074008700881489148A148B15
S11305A0148C148D008E008F009014911492149367
S11305B0149414950096009700A600A714A814A9F3
S11305C014AA14AB14AC00AE00AF14B014B114B23E
S11305D014B314B414B514B614B714B800C600C7D1
S11305E014C814C914CA00CB00CD00CE14CF14D043
S11305F014D100D200D300D414D514D614D714D8EF
S113060014D900E500E614E714E814E900EC00ED61
S113061000EE00EF00F000F400F500F614F714F813
S113062014F9000501061507150815090116011727
S11306301518151901250126152715280136013726
S113064015380144014515461547154801570164FD
S11306500165156615671568018501861587018F83
S113066001900191019201930194019501960197E2
S113067001980199019A019B019C01A101A201A584
S113068001A615A701AC01AD01AF01B00DB10DB2CA
S11306900DB30DB40DB50DB60DB70DB80DB90DBA3A
S11306A00DBB01BC11BD01C001C105C205C301C51B
S11306B001C615C701CB01CC05CD05CE01CF01D0B4
S11306C00DD10DD20DD30DD40DD50DD60DD70DD81A
S11306D00DD90DDA0DDB01DC11DD01E001E105E2EC
S11306E005E301E601EB01EC05ED05EE01EF09F090
S11306F001F10DF20DF30DF40DF50DF60DF70DF8F6
S11307000DF90DFA0DFB01FC11FD010002010202BD
S113071006030604020A020B060C060D020E020F63
S11307200A1002110212021302140E150E160E17ED
S113073002180219021A021B021C121D02210222B3
S113074006230624022A022B062C062D022E0A2F2B
S11307500230023302340E350E360E3702381239A7
S1130760123A123B123C123D024102420243064439
S113077006450249024A064B064C024D024E0A4FF8
S1130780025302540E550E560E5702581259025A6D
S1130790025B025C02620263066406650269026A25
S11307A0066B066C026D0A6E026F027302740E759C
S11307B00E760E770278127902820283028406850D
S11307C0068602880289068A068B028C028D0A8EAE
S11307D0029302940E950E960E970298129902A314
S11307E002A406A506A602A802A906AA06AB02ACA4
S11307F00AAD02AE02B302B40EB50EB60EB702B81D
S113080012B902C302C402C506C606C702C806C995
S113081006CA02CB02CC0ACD02D302D40ED50ED620
S11308200ED702D812D902E402E506E606E706E886
S113083006E906EA02EB0AEC02ED02EF02F002F12D
S113084002F202F302F40EF50EF60EF702F802F9C4
S113085002FA02FB02FC0204030503060707070869
S11308600709030A030B0B0C030F03100F110F12DC
S11308700F130F140F150F160F170F180F190F1A48
S11308800F1B031C131D032503260727072807290D
S1130890032A0B2B032C032F03300F310F320F339A
S11308A00F340F350F360F370F380F390F3A0F3B10
S11308B0033C133D03450346034707480349034AE2
S11308C00B4B034F03500F510F520F530F540F553F
S11308D00F560F570F580F590F5A0F5B035C135DD8
S11308E003660367076803690B6A036B036F03708E
S11308F00371037203730374037503760377037838
S11309000379037A037B037C137D038603870388BF
S113091003890B8A038F03901391139213931394F7
S113092013951396139713981399139A139B139C67
S1130930039D03A703A803A903B003B103B203B340
S113094003B403B503B603B703B803B903BA03BBCF
S113095003BC030011241FBECFE5D4E0DEBFCDBF2E
S113096011E0A0E6B0E0ECE6F7E102C005900D92DC
S1130970AC3FB107D9F722E0ACEFB1E001C01D9262
S1130980AC3DB207E1F70E94620B0C94B40B0C94DB
S113099000000F931F9308E61AE420EE37E042E0CC
S11309A060EA70E08DE590E00E94AF0788E69AE483
S11309B00E94180A44E050E06EE170E084E690E0A2
S11309C00E94B0098BE690E00E94F60A81E00E9442
S11309D0A70788E790E00E94F60A1F910F910895F7
S11309E00F931F9300E010E020EE37E043E06AE04D
S11309F070E08AE090E00E94AF0780E090E00E94FF
S1130A00180A00EE17E02CE130E04EE550E068E013
S1130A1070E088E090E00E9473098BE790E00E9408
S1130A20F60A00E010E020E23DEF42E062E370E00D
S1130A308AE090E00E94AF0783E890E00E94F60A03
S1130A4081E990E00E94F60A8FE990E00E94F60A9C
S1130A508DEA90E00E94F60A8BEB90E00E94F60A81
S1130A6089EC90E00E94F60A87ED90E00E94F60A75
S1130A7085EE90E00E94F60A83EF90E00E94F60A69
S1130A801F910F910895833018F4813028F00CC021
S1130A90833031F080E008950E94C90481E0089514
S1130AA00E94F00481E0089581E008958C9A94985E
S1130AB08AE08EBD089584E08CBB1FBA1EBA0895E7
S1130AC0E199FECF9FBB8EBBE09A8DB3089582E07F
S1130AD090E00E9460058093010283E090E00E9410
S1130AE060058093FE0180E090E00E9460058093A1
S1130AF0FF0181E090E00E94600580930002089568
S1130B0090BD89B988E18AB98EE880BD08955D9B5E
S1130B10FECF8CB908950F931F93CF93DF93C5E550
S1130B20D1E008E811E089910E9487050C171D07A0
S1130B30D1F7C4E4D1E005E511E089910E9487056D
S1130B400C171D07D1F7CBE2D1E004E411E0899141
S1130B500E9487050C171D07D1F7DF91CF911F91D4
S1130B600F9108955D9BFECF8CB908955F9BFECFD6
S1130B708CB10895E2E0F2E08AE792E01192E8177E
S1130B80F907E1F71092FD011092FC0108950E940B
S1130B90BA051092FC01579A08950F931F93CF93AF
S1130BA0DF93CCE1D1E00BE211E089910E94B20520
S1130BB0C017D107D1F78DE00E94B2058AE00E94E8
S1130BC0B205C5E1D1E00CE111E089910E94B205C2
S1130BD0C017D107D1F7CFE7D2E08E810E94B205CA
S1130BE08EE20E94B2058F810E94B2058EE20E94BD
S1130BF0B20588850E94B2058DE00E94B2058AE0A4
S1130C000E94B205DF91CF911F910F9108950F9328
S1130C101F93CF93DF931092FC01809103028734DA
S1130C2021F480910402803529F0C1E0D1E005E18E
S1130C3011E00DC0809105028235B9F7809106025A
S1130C408D3499F780910702833479F70CC0899128
S1130C500E94B2050C171D07D1F78DE00E94B20562
S1130C608AE00E94B205AFE7B2E0E2E0F2E08781F9
S1130C70880F982F990F990F890F9085890F1696D1
S1130C808C9316978185880F982F990F990F890F48
S1130C909285890F17968C9317978385880F982FC1
S1130CA0990F990F890F9485890F18968C9318972B
S1130CB0828952968C93863529F40E94CD050E9430
S1130CC0C70537C1E6E1F2E0A2E9B2E02FE132E084
S1130CD081918D93E217F307D9F7AFE7B2E0E2E031
S1130CE0F2E0248948EE53E0249FC001259F900D33
S1130CF011242589C4E6BC01C29F600D711D112415
S1130D009689892F90E08C01000F111F9C01220FFE
S1130D10331F220F331F220F331FC801820F931F6B
S1130D20860F971F2789820F911D5D969C938E9342
S1130D305C97218D249FC001259F900D1124228D45
S1130D40AC01C29F400D511D1124938D892F90E059
S1130D50BC01660F771F9C01220F331F220F331F24
S1130D60220F331FCB01820F931F840F951F248DF5
S1130D70820F911D5F969C938E935E97868D9096BD
S1130D808C93E2E2F2E0A0EAB2E02CE232E081915C
S1130D908D93E217F307D9F7CFE7D2E0E2E0F2E070
S1130DA040A180E197E2489F9001499F300D1124B2
S1130DB061A148EE53E0649FC001659F900D11242A
S1130DC0820F931F22A164E6629F800D911D11245E
S1130DD023A130E0D901AA0FBB1F220F331F220F1A
S1130DE0331F220F331F2A0F3B1F820F931F24A18F
S1130DF0820F911D092E000CAA0BBB0B8BA79CA77D
S1130E00ADA7BEA726A1249FC001259F900D112444
S1130E1027A1AC01629F400D511D112490A5892F7B
S1130E2090E0BC01660F771F9C01220F331F220F35
S1130E30331F220F331FCB01820F931F840F951F83
S1130E4021A5820F911D98AB8FA783A589AB25A5FA
S1130E502AAB86A58BAB87A58CAB90A99DAB2EAB9B
S1130E60880F282F220F220F820F980F9FABE4E3E5
S1130E70F2E0A7EBB2E02AE332E081918D93E2172E
S1130E80F307D9F7E2E0F2E022A983A990E0AC01EC
S1130E90440F551F880F991F880F991F880F991F9A
S1130EA0840F951F34E6239F800D911D112424A9DE
S1130EB0820F911D9093BE028093BD0286A9880F74
S1130EC0982F990F990F890F97A9890F8093BF02C3
S1130ED0EBE3F2E0A8E8B2E021E432E081918D9303
S1130EE02E173F07D9F7AFE7B2E0E2E0F2E081ADB9
S1130EF0880F982F990F990F890F92AD890F1F961C
S1130F008C931F9783AD880F982F990F990F890F92
S1130F1094AD890F50968C93509785AD880F982F78
S1130F20990F990F890F96AD890F51968C930E9452
S1130F30C705DF91CF911F910F910895E0E6F0E08E
S1130F4091838083938382837583648308959FEF61
S1130F50980F983008F081E0809366000895EF922E
S1130F60FF920F931F93CF93DF937901C0E6D0E0F4
S1130F70998388839B838A837D836C83842F0E94D7
S1130F80A707F886EF821A870987DF91CF911F910F
S1130F900F91FF90EF90089587B38A6B87BB80E52C
S1130FA08DB9C39A08958FB9779BFECF089598B3EE
S1130FB0977E98BB0E94D307C39A0895C49AC39896
S1130FC00E94D307C39A08950E94CC0781E00E942F
S1130FD0D7078FE39CE90197F1F700C0000088E28E
S1130FE00E94D70780EC0E94D70786E20E94DE07A2
S1130FF081EC0E94D70781E10E94DE0785EC0E9404
S1131000D7078CE50E94DE078CE40E94DE0787EC9C
S11310100E94D70784E90E94DE0786E30E94D7076F
S113102088E40E94DE078AE30E94D70785E50E94D0
S1131030DE0781EB0E94D70780E00E94DE0788E18B
S11310400E94DE0782EF0E94D70788E00E94DE0735
S113105086E20E94D70781E00E94DE0780EE0E94AC
S1131060D7078FE10E94DE078AE10E94DE0788E14C
S11310700E94DE078AE00E94DE078FE00E94DE07FE
S113108086E00E94DE0785E40E94DE0787E80E946E
S1131090DE0782E30E94DE078AE00E94DE0787E023
S11310A00E94DE0782E00E94DE0787E00E94DE07DE
S11310B085E00E94DE0780E00E94DE0781EE0E9448
S11310C0D70780E00E94DE0785E20E94DE0787E200
S11310D00E94DE0785E00E94DE0780E10E94DE07B1
S11310E089E00E94DE078AE30E94DE0788E70E9407
S11310F0DE078DE40E94DE0785E00E94DE0788E1BA
S11311000E94DE078DE00E94DE0788E30E94DE076E
S11311108AE30E94DE078FE10E94DE078AE20E94D2
S1131120D70780E00E94DE0780E00E94DE0780E0AF
S11311300E94DE078FEE0E94DE078BE20E94D70733
S113114080E00E94DE0780E00E94DE0781E00E94CA
S1131150DE078FE30E94DE0787EB0E94D70787E054
S11311600E94DE0786EB0E94D7078AE00E94DE0712
S113117082E80E94DE0787E20E94DE0780E00E9488
S1131180DE0781E10E94D7079FEF21EE84E09150B2
S113119020408040E1F700C0000089E20E94D707A8
S11311A09FEF21EE84E0915020408040E1F700C0A1
S11311B000008CE20E94D70786E30E94D70788E2EA
S11311C00E94DE071092D2021092DB020895CF93A0
S11311D0C82F892F0E94DE078C2F0E94DE07CF9133
S11311E00895CF92DF92EF92FF920F931F93CF93C4
S11311F0DF93D82EC92E162F072FF42EE52EC22FDB
S1131200D32F8AE20E94D7078C2D0E94DE078D2DF2
S11312100E94DE078E2D0E94DE078F2D0E94DE07BE
S11312208BE20E94D707802F0E94DE07812F0E9445
S1131230DE078D2F0E94DE078C2F0E94DE078CE2D2
S11312400E94D707DF91CF911F910F91FF90EF90EC
S1131250DF90CF900895CF93DF93EA019B01AC0117
S11312600E94F108CE010E94E708DF91CF91089512
S1131270AF92BF92CF92DF92EF92FF920F931F93A0
S1131280CF93DF937A01590121503109260F371F7B
S113129041505109480F591F0E94F108A114B1048B
S11312A089F416C0C0E0D0E0C8010E94E708219686
S11312B0EC16FD06C9F78FEFC81AD80AAC14BD04A2
S11312C019F406C0C12CD12CE114F10459F7F3CF61
S11312D0DF91CF911F910F91FF90EF90DF90CF900E
S11312E0BF90AF9008958F929F92AF92BF92CF928A
S11312F0DF92EF92FF920F931F93CF93DF937C01C2
S11313006B01EA01490121E030E00E943809B4018F
S1131310615071096C0D7D1D21E030E0AE01C70103
S11313200E943809940141E050E0B601C7010E94CF
S11313303809CE010197940141E050E0B6018E0DC9
S11313409F1D0E943809DF91CF911F910F91FF904B
S1131350EF90DF90CF90BF90AF909F908F900895C3
S11313608F929F92AF92BF92CF92DF92EF92FF92B1
S11313700F931F93CF93DF934C015B017A01CFE46A
S1131380D5E00F2EF3E5CF2EF9E0DF2EF02DFE0190
S113139025913491D901AF71BB27C90196958795E1
S11313A0929582958F7089279F7089278F719927CD
S11313B0F901EF2FFF27E695EE73FF27E857FE4F5D
S11313C00081118121E0E216F10451F4BC016A0D9F
S11313D07B1DA801CD01880D991D0E942B0916C003
S11313E08E9DB0018F9D700D9E9D700D11246A0D10
S11313F07B1DAE9DC001AF9D900DBE9D900D11242F
S11314009701A701880D991D0E9438092296CC15D1
S1131410DD0509F0BCCFDF91CF911F910F91FF90B3
S1131420EF90DF90CF90BF90AF909F908F900895F2
S11314300F931F938C0120EF30E040E451E060E013
S113144070E080E090E00E9438091F910F910895A8
S11314502F923F924F925F926F927F928F929F92C0
S1131460AF92BF92CF92DF92EF92FF920F931F93AE
S1131470CF93DF93CDB7DEB72B970FB6F894DEBFCB
S11314800FBECDBF7F836E83E98250E0BA01660F41
S1131490771F660F771F460F571F4E2C512C3C01A8
S11314A01C011A82BA01681B790B7987688742018B
S11314B0AE80BF8078E0A70EB11C2B833C830D83E4
S11314C0E12E8A818530BCF5E885F985E20DF31DAE
S11314D0EC5AFF4FF49030C0F0FC03C00D811E2D78
S11314E002C00B811C819981913041F4402F512F0E
S11314F06A857B85C1010E942B0906C09201A20165
S1131500B601C3010E943809F6946A857B856F5F32
S11315107F4F7B876A87C80CD91C6A157B05E1F667
S11315207A817F5F7A838FEF281A380A640C751CDE
S1131530763039F607C0F12C6E817F816B017B8791
S11315406A87CACF2B960FB6F894DEBF0FBECDBF05
S1131550DF91CF911F910F91FF90EF90DF90CF908B
S1131560BF90AF909F908F907F906F905F904F90BF
S11315703F902F900895EF920F931F93CF93DF9393
S11315808A3089F4E0E6F0E026818481958138E0B0
S1131590239F800D911D11249583848380819181E3
S11315A0938382831DC0482FC0E6D0E009851A8545
S11315B02F8138856C817D81EE808A819B810E9498
S11315C0280A8E8190E09C01220F331F820F931F03
S11315D0880F991F2A813B81820F931F9B838A83E3
S11315E0DF91CF911F910F91EF9008951F93CF93A7
S11315F0DF93EC0110E007C0FE01E80FF91F8081C2
S11316000E94BB0A1F5F812F90E0FE010190002021
S1131610E9F73197EC1BFD0B8E179F0768F3DF91F9
S1131620CF911F9108951F920F920FB60F9211241C
S11316302F933F934F935F936F937F938F939F93D6
S1131640AF93BF93CF93EF93FF930E94B605C82F38
S11316508091FD01893710F00E94BA05C43249F423
S113166081E08093FC0194E2909302028093FD0157
S113167017C0CA3239F48091FC01882389F00E9492
S113168007060EC08091FC01882351F08091FD0172
S1131690E82FF0E0EE5FFD4FC0838F5F8093FD0184
S11316A0FF91EF91CF91BF91AF919F918F917F91D6
S11316B06F915F914F913F912F910F900FBE0F90BB
S11316C01F9018958FEF8ABB1BBA8DEC87BB82E302
S11316D088BB14BA15BA82E181BB80E882BB0E9440
S11316E05B050E9467050E94E4070E94560580E09E
S11316F00E94430508E61AE42FEF3FEF41E068EB50
S113170070E08CE590E00E94AF078FE39CE90197BD
S1131710F1F700C000001092FD011092FC0184E971
S113172091E00E94F60A83E390E00E94800568EB52
S113173070E08CE590E00E949E078EEA91E00E94A2
S1131740F60A0E948B0568EB70E08CE590E00E943D
S11317509E0788EC91E00E94F60A83E00E9443050C
S10F17600E94C7057894FFCFF894FFCFD7
S113176C000000000100FF00000000506F7765725C
S113177C20436F75706C6500544D004445425547C9
S113178C0A0A0054696D65202855544329203A0AE5
S113179C0044617465202020202020203A0A004453
S11317AC617461205374617475733A0A004C6174EA
S11317BC69747564652020203A0A004C6F6E676961
S11317CC7475646520203A0A004E2F532020202083
S11317DC202020203A0A00452F57202020202020AA
S11317EC20203A0A005370656564202020202020B4
S11317FC3A0A00436F7572736520202020203A0A40
S113180C004750524D43204E4F5420415641494CB1
S113181C41424C45215B5554435D200044415441A5
S113182C204E4F542056414C49442124504D544B86
S113183C3330302C3230302C302C302C302C302AAD
S113184C32460D0A24504D544B3232302C31303048
S113185C2A32460D0A24504D544B3331342C302C3F
S113186C312C302C302C302C302C302C302C302C87
S113187C302C302C302C302C302C302C302C302C78
S113188C302C302A32390D0A000000F800601F0099
S113189C6A00E0FF496E697469616C697A696E6704
S11318AC2055534152542E2E2E2020202000436FBD
S11318BC6E6669677572696E67204669726D7761C9
S11318CC72652E2E2E202000456E61626C696E6747
S11318DC2053747265616D2E2E2E20202020202022
S11318EC2000484F55523A20004D494E5554453A24
S10F18FC20005345434F4E443A200000A6
S9030000FC
